{
  "transactions": [
    {
      "hash": "0xcc10349a91cb2ca5e06c7063fa25408a4ec5b54b9564fbe92cc559a51aed455e",
      "transactionType": "CALL",
      "contractName": null,
      "contractAddress": "0x3e63905833eb3448e873801cc9a1c6212bd4ff01",
      "function": null,
      "arguments": null,
      "transaction": {
        "from": "0x4b992f2fbf714c0fcbb23bac5130ace48cad00cd",
        "to": "0x3e63905833eb3448e873801cc9a1c6212bd4ff01",
        "gas": "0x714d",
        "value": "0x470de4df820000",
        "input": "0x",
        "nonce": "0x462",
        "chainId": "0x515"
      },
      "additionalContracts": [],
      "isFixedGasLimit": false
    },
    {
      "hash": "0x5103ee74365a8b27932820bac6efbcf264b4a7a03b85e37244bd4f120528030f",
      "transactionType": "CALL",
      "contractName": null,
      "contractAddress": "0xd98ecd012cfb0491b13665dcd68fb2c63c243bc4",
      "function": null,
      "arguments": null,
      "transaction": {
        "from": "0x4b992f2fbf714c0fcbb23bac5130ace48cad00cd",
        "to": "0xd98ecd012cfb0491b13665dcd68fb2c63c243bc4",
        "gas": "0x714d",
        "value": "0x470de4df820000",
        "input": "0x",
        "nonce": "0x463",
        "chainId": "0x515"
      },
      "additionalContracts": [],
      "isFixedGasLimit": false
    },
    {
      "hash": "0xb9aa5cb2815b45b1b7fe0c5912b9951743c47845ef80b561b2074a0756805c16",
      "transactionType": "CALL",
      "contractName": null,
      "contractAddress": "0x369b5a33e388a631f056e6a398927008ca4c5660",
      "function": "mint(address,uint256)",
      "arguments": [
        "0x3e63905833eb3448e873801Cc9a1C6212bd4ff01",
        "1000000000000000000000"
      ],
      "transaction": {
        "from": "0x3e63905833eb3448e873801cc9a1c6212bd4ff01",
        "to": "0x369b5a33e388a631f056e6a398927008ca4c5660",
        "gas": "0x12820",
        "value": "0x0",
        "input": "0x40c10f190000000000000000000000003e63905833eb3448e873801cc9a1c6212bd4ff0100000000000000000000000000000000000000000000003635c9adc5dea00000",
        "nonce": "0x0",
        "chainId": "0x515"
      },
      "additionalContracts": [],
      "isFixedGasLimit": false
    },
    {
      "hash": "0x6071655761e15888a3e1c06acfaea13f28b8101170e7f9cbaef0a0df93989603",
      "transactionType": "CALL",
      "contractName": null,
      "contractAddress": "0x46ca7a592990a8d7396dc7d1d761c47c5370993e",
      "function": "mint(address,uint256)",
      "arguments": [
        "0x3e63905833eb3448e873801Cc9a1C6212bd4ff01",
        "1000000000000000000000"
      ],
      "transaction": {
        "from": "0x3e63905833eb3448e873801cc9a1c6212bd4ff01",
        "to": "0x46ca7a592990a8d7396dc7d1d761c47c5370993e",
        "gas": "0x12820",
        "value": "0x0",
        "input": "0x40c10f190000000000000000000000003e63905833eb3448e873801cc9a1c6212bd4ff0100000000000000000000000000000000000000000000003635c9adc5dea00000",
        "nonce": "0x1",
        "chainId": "0x515"
      },
      "additionalContracts": [],
      "isFixedGasLimit": false
    },
    {
      "hash": "0x9f9c3cc5880f4e67dcebcd6e80692bd4207945d813cf935ab2f4daee6f539b76",
      "transactionType": "CALL",
      "contractName": null,
      "contractAddress": "0x369b5a33e388a631f056e6a398927008ca4c5660",
      "function": "approve(address,uint256)",
      "arguments": [
        "0xE9C26cdBB509E1515d06D8eaca74C63E08143977",
        "115792089237316195423570985008687907853269984665640564039457584007913129639935"
      ],
      "transaction": {
        "from": "0x3e63905833eb3448e873801cc9a1c6212bd4ff01",
        "to": "0x369b5a33e388a631f056e6a398927008ca4c5660",
        "gas": "0xfee1",
        "value": "0x0",
        "input": "0x095ea7b3000000000000000000000000e9c26cdbb509e1515d06d8eaca74c63e08143977ffffffffffffffffffffffffffffffffffffffffffffffffffffffffffffffff",
        "nonce": "0x2",
        "chainId": "0x515"
      },
      "additionalContracts": [],
      "isFixedGasLimit": false
    },
    {
      "hash": "0x0c722c7f82eefa004b5c8564439fb1f423751ace6f94e8127f37969868c13bb4",
      "transactionType": "CALL",
      "contractName": null,
      "contractAddress": "0x46ca7a592990a8d7396dc7d1d761c47c5370993e",
      "function": "approve(address,uint256)",
      "arguments": [
        "0xE9C26cdBB509E1515d06D8eaca74C63E08143977",
        "115792089237316195423570985008687907853269984665640564039457584007913129639935"
      ],
      "transaction": {
        "from": "0x3e63905833eb3448e873801cc9a1c6212bd4ff01",
        "to": "0x46ca7a592990a8d7396dc7d1d761c47c5370993e",
        "gas": "0xfee1",
        "value": "0x0",
        "input": "0x095ea7b3000000000000000000000000e9c26cdbb509e1515d06d8eaca74c63e08143977ffffffffffffffffffffffffffffffffffffffffffffffffffffffffffffffff",
        "nonce": "0x3",
        "chainId": "0x515"
      },
      "additionalContracts": [],
      "isFixedGasLimit": false
    },
    {
      "hash": "0x83fe4c785a09676720decf30afde29d131ea5f68f25e410d3c858e5eef2b4d9e",
      "transactionType": "CALL",
      "contractName": null,
      "contractAddress": "0xe9c26cdbb509e1515d06d8eaca74c63e08143977",
      "function": "deposit(uint256,uint256,address)",
      "arguments": [
        "1000000000000000000000",
        "1000000000000000000000",
        "0x3e63905833eb3448e873801Cc9a1C6212bd4ff01"
      ],
      "transaction": {
        "from": "0x3e63905833eb3448e873801cc9a1c6212bd4ff01",
        "to": "0xe9c26cdbb509e1515d06d8eaca74c63e08143977",
        "gas": "0x4899b",
        "value": "0x0",
        "input": "0x8dbdbe6d00000000000000000000000000000000000000000000003635c9adc5dea0000000000000000000000000000000000000000000000000003635c9adc5dea000000000000000000000000000003e63905833eb3448e873801cc9a1c6212bd4ff01",
        "nonce": "0x4",
        "chainId": "0x515"
      },
      "additionalContracts": [],
      "isFixedGasLimit": false
    },
    {
      "hash": "0xe966532f5f95ae7b47d62dbd9e352589bff13c92424361082a471445bfd00e95",
      "transactionType": "CALL",
      "contractName": null,
      "contractAddress": "0x369b5a33e388a631f056e6a398927008ca4c5660",
      "function": "mint(address,uint256)",
      "arguments": [
        "0xd98EcD012cFB0491b13665dCd68fB2c63C243bC4",
        "1000000000000000000000"
      ],
      "transaction": {
        "from": "0xd98ecd012cfb0491b13665dcd68fb2c63c243bc4",
        "to": "0x369b5a33e388a631f056e6a398927008ca4c5660",
        "gas": "0x12820",
        "value": "0x0",
        "input": "0x40c10f19000000000000000000000000d98ecd012cfb0491b13665dcd68fb2c63c243bc400000000000000000000000000000000000000000000003635c9adc5dea00000",
        "nonce": "0x0",
        "chainId": "0x515"
      },
      "additionalContracts": [],
      "isFixedGasLimit": false
    },
    {
      "hash": "0x152ddf8bdadb13b309e9adfe7b135e65ed2cac00808e4b407ffcb333b45b3c19",
      "transactionType": "CALL",
      "contractName": null,
      "contractAddress": "0x46ca7a592990a8d7396dc7d1d761c47c5370993e",
      "function": "mint(address,uint256)",
      "arguments": [
        "0xd98EcD012cFB0491b13665dCd68fB2c63C243bC4",
        "1000000000000000000000"
      ],
      "transaction": {
        "from": "0xd98ecd012cfb0491b13665dcd68fb2c63c243bc4",
        "to": "0x46ca7a592990a8d7396dc7d1d761c47c5370993e",
        "gas": "0x12820",
        "value": "0x0",
        "input": "0x40c10f19000000000000000000000000d98ecd012cfb0491b13665dcd68fb2c63c243bc400000000000000000000000000000000000000000000003635c9adc5dea00000",
        "nonce": "0x1",
        "chainId": "0x515"
      },
      "additionalContracts": [],
      "isFixedGasLimit": false
    },
    {
      "hash": "0x6d6cd849e8251ea021e542ef354cb1876414bb3c1e142e8fb54ed17105e59696",
      "transactionType": "CALL",
      "contractName": null,
      "contractAddress": "0x369b5a33e388a631f056e6a398927008ca4c5660",
      "function": "approve(address,uint256)",
      "arguments": [
        "0xE9C26cdBB509E1515d06D8eaca74C63E08143977",
        "115792089237316195423570985008687907853269984665640564039457584007913129639935"
      ],
      "transaction": {
        "from": "0xd98ecd012cfb0491b13665dcd68fb2c63c243bc4",
        "to": "0x369b5a33e388a631f056e6a398927008ca4c5660",
        "gas": "0xfee1",
        "value": "0x0",
        "input": "0x095ea7b3000000000000000000000000e9c26cdbb509e1515d06d8eaca74c63e08143977ffffffffffffffffffffffffffffffffffffffffffffffffffffffffffffffff",
        "nonce": "0x2",
        "chainId": "0x515"
      },
      "additionalContracts": [],
      "isFixedGasLimit": false
    },
    {
      "hash": "0xfd1666af78f9755018c2b747d8da8c1965a641569d288578c58a45a0e4a4ce2a",
      "transactionType": "CALL",
      "contractName": null,
      "contractAddress": "0x46ca7a592990a8d7396dc7d1d761c47c5370993e",
      "function": "approve(address,uint256)",
      "arguments": [
        "0xE9C26cdBB509E1515d06D8eaca74C63E08143977",
        "115792089237316195423570985008687907853269984665640564039457584007913129639935"
      ],
      "transaction": {
        "from": "0xd98ecd012cfb0491b13665dcd68fb2c63c243bc4",
        "to": "0x46ca7a592990a8d7396dc7d1d761c47c5370993e",
        "gas": "0xfee1",
        "value": "0x0",
        "input": "0x095ea7b3000000000000000000000000e9c26cdbb509e1515d06d8eaca74c63e08143977ffffffffffffffffffffffffffffffffffffffffffffffffffffffffffffffff",
        "nonce": "0x3",
        "chainId": "0x515"
      },
      "additionalContracts": [],
      "isFixedGasLimit": false
    },
    {
      "hash": "0x20e15a22c8a6ffc0af5f976f041bce8897fc66adb3952ff13d31208f98906abd",
      "transactionType": "CALL",
      "contractName": null,
      "contractAddress": "0xe9c26cdbb509e1515d06d8eaca74c63e08143977",
      "function": "deposit(uint256,uint256,address)",
      "arguments": [
        "1000000000000000000000",
        "1000000000000000000000",
        "0xd98EcD012cFB0491b13665dCd68fB2c63C243bC4"
      ],
      "transaction": {
        "from": "0xd98ecd012cfb0491b13665dcd68fb2c63c243bc4",
        "to": "0xe9c26cdbb509e1515d06d8eaca74c63e08143977",
        "gas": "0x27e2c",
        "value": "0x0",
        "input": "0x8dbdbe6d00000000000000000000000000000000000000000000003635c9adc5dea0000000000000000000000000000000000000000000000000003635c9adc5dea00000000000000000000000000000d98ecd012cfb0491b13665dcd68fb2c63c243bc4",
        "nonce": "0x4",
        "chainId": "0x515"
      },
      "additionalContracts": [],
      "isFixedGasLimit": false
    },
    {
      "hash": "0xf5965f52b4cc28e07dfff9f407e1cdf35e8ab821183776d84b9228418309cf85",
      "transactionType": "CALL",
      "contractName": null,
      "contractAddress": "0x369b5a33e388a631f056e6a398927008ca4c5660",
      "function": "mint(address,uint256)",
      "arguments": [
        "0x4b992F2Fbf714C0fCBb23baC5130Ace48CaD00cd",
        "2000000000000000000000"
      ],
      "transaction": {
        "from": "0x4b992f2fbf714c0fcbb23bac5130ace48cad00cd",
        "to": "0x369b5a33e388a631f056e6a398927008ca4c5660",
        "gas": "0xc65d",
        "value": "0x0",
        "input": "0x40c10f190000000000000000000000004b992f2fbf714c0fcbb23bac5130ace48cad00cd00000000000000000000000000000000000000000000006c6b935b8bbd400000",
        "nonce": "0x464",
        "chainId": "0x515"
      },
      "additionalContracts": [],
      "isFixedGasLimit": false
    },
    {
      "hash": "0x138f451caff22843d387f2b8fc76e490f917d80aeb9c3f10f5baeb2ff18e13dc",
      "transactionType": "CALL",
      "contractName": null,
      "contractAddress": "0x46ca7a592990a8d7396dc7d1d761c47c5370993e",
      "function": "mint(address,uint256)",
      "arguments": [
        "0x4b992F2Fbf714C0fCBb23baC5130Ace48CaD00cd",
        "2000000000000000000000"
      ],
      "transaction": {
        "from": "0x4b992f2fbf714c0fcbb23bac5130ace48cad00cd",
        "to": "0x46ca7a592990a8d7396dc7d1d761c47c5370993e",
        "gas": "0xc65d",
        "value": "0x0",
        "input": "0x40c10f190000000000000000000000004b992f2fbf714c0fcbb23bac5130ace48cad00cd00000000000000000000000000000000000000000000006c6b935b8bbd400000",
        "nonce": "0x465",
        "chainId": "0x515"
      },
      "additionalContracts": [],
      "isFixedGasLimit": false
    },
    {
      "hash": "0x879033540deae355bea1fbf88705cecedd156b76ef86631e44dfc83c900dd245",
      "transactionType": "CALL",
      "contractName": null,
      "contractAddress": "0x369b5a33e388a631f056e6a398927008ca4c5660",
      "function": "mint(address,uint256)",
      "arguments": [
        "0xE9C26cdBB509E1515d06D8eaca74C63E08143977",
        "25000000000000000000"
      ],
      "transaction": {
        "from": "0x4b992f2fbf714c0fcbb23bac5130ace48cad00cd",
        "to": "0x369b5a33e388a631f056e6a398927008ca4c5660",
        "gas": "0xbb68",
        "value": "0x0",
        "input": "0x40c10f19000000000000000000000000e9c26cdbb509e1515d06d8eaca74c63e081439770000000000000000000000000000000000000000000000015af1d78b58c40000",
        "nonce": "0x466",
        "chainId": "0x515"
      },
      "additionalContracts": [],
      "isFixedGasLimit": false
    },
    {
      "hash": "0x62e517ce4f08a53dfc83ec94f47e65bf3260fbb76ede7adc44411626abf2fe99",
      "transactionType": "CALL",
      "contractName": null,
      "contractAddress": "0x46ca7a592990a8d7396dc7d1d761c47c5370993e",
      "function": "mint(address,uint256)",
      "arguments": [
        "0xE9C26cdBB509E1515d06D8eaca74C63E08143977",
        "25000000000000000000"
      ],
      "transaction": {
        "from": "0x4b992f2fbf714c0fcbb23bac5130ace48cad00cd",
        "to": "0x46ca7a592990a8d7396dc7d1d761c47c5370993e",
        "gas": "0xbb68",
        "value": "0x0",
        "input": "0x40c10f19000000000000000000000000e9c26cdbb509e1515d06d8eaca74c63e081439770000000000000000000000000000000000000000000000015af1d78b58c40000",
        "nonce": "0x467",
        "chainId": "0x515"
      },
      "additionalContracts": [],
      "isFixedGasLimit": false
    },
    {
      "hash": "0xf6fa2123957c708fad2c53b820ce1d0547b2077f1d5b8bb2d2267ceecf82a865",
      "transactionType": "CALL",
      "contractName": null,
      "contractAddress": "0x369b5a33e388a631f056e6a398927008ca4c5660",
      "function": "approve(address,uint256)",
      "arguments": [
        "0x000000000022D473030F116dDEE9F6B43aC78BA3",
        "115792089237316195423570985008687907853269984665640564039457584007913129639935"
      ],
      "transaction": {
        "from": "0x4b992f2fbf714c0fcbb23bac5130ace48cad00cd",
        "to": "0x369b5a33e388a631f056e6a398927008ca4c5660",
        "gas": "0x9330",
        "value": "0x0",
        "input": "0x095ea7b3000000000000000000000000000000000022d473030f116ddee9f6b43ac78ba3ffffffffffffffffffffffffffffffffffffffffffffffffffffffffffffffff",
        "nonce": "0x468",
        "chainId": "0x515"
      },
      "additionalContracts": [],
      "isFixedGasLimit": false
    },
    {
      "hash": "0x40633fb8f2d990fcd3c7a8092e660d86cdbf2044bc981fb179138aa4f0bf40b9",
      "transactionType": "CALL",
      "contractName": null,
      "contractAddress": "0x46ca7a592990a8d7396dc7d1d761c47c5370993e",
      "function": "approve(address,uint256)",
      "arguments": [
        "0x000000000022D473030F116dDEE9F6B43aC78BA3",
        "115792089237316195423570985008687907853269984665640564039457584007913129639935"
      ],
      "transaction": {
        "from": "0x4b992f2fbf714c0fcbb23bac5130ace48cad00cd",
        "to": "0x46ca7a592990a8d7396dc7d1d761c47c5370993e",
        "gas": "0x9330",
        "value": "0x0",
        "input": "0x095ea7b3000000000000000000000000000000000022d473030f116ddee9f6b43ac78ba3ffffffffffffffffffffffffffffffffffffffffffffffffffffffffffffffff",
        "nonce": "0x469",
        "chainId": "0x515"
      },
      "additionalContracts": [],
      "isFixedGasLimit": false
    },
    {
      "hash": "0x57b8a503173dff66873aa41f46584986f617e3d81ceea6e23c9b109c0ce7a6e4",
      "transactionType": "CALL",
      "contractName": null,
      "contractAddress": "0x369b5a33e388a631f056e6a398927008ca4c5660",
      "function": "approve(address,uint256)",
      "arguments": [
        "0x9cD2b0a732dd5e023a5539921e0FD1c30E198Dba",
        "115792089237316195423570985008687907853269984665640564039457584007913129639935"
      ],
      "transaction": {
        "from": "0x4b992f2fbf714c0fcbb23bac5130ace48cad00cd",
        "to": "0x369b5a33e388a631f056e6a398927008ca4c5660",
        "gas": "0x9382",
        "value": "0x0",
        "input": "0x095ea7b30000000000000000000000009cd2b0a732dd5e023a5539921e0fd1c30e198dbaffffffffffffffffffffffffffffffffffffffffffffffffffffffffffffffff",
        "nonce": "0x46a",
        "chainId": "0x515"
      },
      "additionalContracts": [],
      "isFixedGasLimit": false
    },
    {
      "hash": "0xd36054aeddec48039cad25f5a96eaae0e944276f148b583d51f5fc789589817c",
      "transactionType": "CALL",
      "contractName": null,
      "contractAddress": "0x46ca7a592990a8d7396dc7d1d761c47c5370993e",
      "function": "approve(address,uint256)",
      "arguments": [
        "0x9cD2b0a732dd5e023a5539921e0FD1c30E198Dba",
        "115792089237316195423570985008687907853269984665640564039457584007913129639935"
      ],
      "transaction": {
        "from": "0x4b992f2fbf714c0fcbb23bac5130ace48cad00cd",
        "to": "0x46ca7a592990a8d7396dc7d1d761c47c5370993e",
        "gas": "0x9382",
        "value": "0x0",
        "input": "0x095ea7b30000000000000000000000009cd2b0a732dd5e023a5539921e0fd1c30e198dbaffffffffffffffffffffffffffffffffffffffffffffffffffffffffffffffff",
        "nonce": "0x46b",
        "chainId": "0x515"
      },
      "additionalContracts": [],
      "isFixedGasLimit": false
    },
    {
      "hash": "0x540c7fe315bca57666f038151645b4b9c428312b665e2acb6d13de42294c0394",
      "transactionType": "CALL",
      "contractName": null,
      "contractAddress": "0x000000000022d473030f116ddee9f6b43ac78ba3",
      "function": "approve(address,address,uint160,uint48)",
      "arguments": [
        "0x369b5a33E388a631F056E6a398927008CA4C5660",
        "0xf969Aee60879C54bAAed9F3eD26147Db216Fd664",
        "1461501637330902918203684832716283019655932542975",
        "281474976710655"
      ],
      "transaction": {
        "from": "0x4b992f2fbf714c0fcbb23bac5130ace48cad00cd",
        "to": "0x000000000022d473030f116ddee9f6b43ac78ba3",
        "gas": "0x96a0",
        "value": "0x0",
        "input": "0x87517c45000000000000000000000000369b5a33e388a631f056e6a398927008ca4c5660000000000000000000000000f969aee60879c54baaed9f3ed26147db216fd664000000000000000000000000ffffffffffffffffffffffffffffffffffffffff0000000000000000000000000000000000000000000000000000ffffffffffff",
        "nonce": "0x46c",
        "chainId": "0x515"
      },
      "additionalContracts": [],
      "isFixedGasLimit": false
    },
    {
      "hash": "0xfb6cd479e2f3240370c0d1f12a868db0af5e1fad0dbfedfd6ee72acad008e03b",
      "transactionType": "CALL",
      "contractName": null,
      "contractAddress": "0x000000000022d473030f116ddee9f6b43ac78ba3",
      "function": "approve(address,address,uint160,uint48)",
      "arguments": [
        "0x46cA7A592990a8D7396Dc7d1D761c47C5370993e",
        "0xf969Aee60879C54bAAed9F3eD26147Db216Fd664",
        "1461501637330902918203684832716283019655932542975",
        "281474976710655"
      ],
      "transaction": {
        "from": "0x4b992f2fbf714c0fcbb23bac5130ace48cad00cd",
        "to": "0x000000000022d473030f116ddee9f6b43ac78ba3",
        "gas": "0x96a0",
        "value": "0x0",
        "input": "0x87517c4500000000000000000000000046ca7a592990a8d7396dc7d1d761c47c5370993e000000000000000000000000f969aee60879c54baaed9f3ed26147db216fd664000000000000000000000000ffffffffffffffffffffffffffffffffffffffff0000000000000000000000000000000000000000000000000000ffffffffffff",
        "nonce": "0x46d",
        "chainId": "0x515"
      },
      "additionalContracts": [],
      "isFixedGasLimit": false
    },
    {
      "hash": "0x2a64c168b7fcbff277992db4613acdf5dd9458e0ebcf2ae5599c7acb20df8c28",
      "transactionType": "CALL",
      "contractName": null,
      "contractAddress": "0x000000000022d473030f116ddee9f6b43ac78ba3",
      "function": "approve(address,address,uint160,uint48)",
      "arguments": [
        "0x369b5a33E388a631F056E6a398927008CA4C5660",
        "0x00B036B58a818B1BC34d502D3fE730Db729e62AC",
        "1461501637330902918203684832716283019655932542975",
        "281474976710655"
      ],
      "transaction": {
        "from": "0x4b992f2fbf714c0fcbb23bac5130ace48cad00cd",
        "to": "0x000000000022d473030f116ddee9f6b43ac78ba3",
        "gas": "0x9f6c",
        "value": "0x0",
        "input": "0x87517c45000000000000000000000000369b5a33e388a631f056e6a398927008ca4c566000000000000000000000000000b036b58a818b1bc34d502d3fe730db729e62ac000000000000000000000000ffffffffffffffffffffffffffffffffffffffff0000000000000000000000000000000000000000000000000000ffffffffffff",
        "nonce": "0x46e",
        "chainId": "0x515"
      },
      "additionalContracts": [],
      "isFixedGasLimit": false
    },
    {
      "hash": "0xfbae1ce14ba532fbc8f7a60d788a6488919dc6a8bbbe5ff49fd130dcd7a3fd8b",
      "transactionType": "CALL",
      "contractName": null,
      "contractAddress": "0x000000000022d473030f116ddee9f6b43ac78ba3",
      "function": "approve(address,address,uint160,uint48)",
      "arguments": [
        "0x46cA7A592990a8D7396Dc7d1D761c47C5370993e",
        "0x00B036B58a818B1BC34d502D3fE730Db729e62AC",
        "1461501637330902918203684832716283019655932542975",
        "281474976710655"
      ],
      "transaction": {
        "from": "0x4b992f2fbf714c0fcbb23bac5130ace48cad00cd",
        "to": "0x000000000022d473030f116ddee9f6b43ac78ba3",
        "gas": "0x9f6c",
        "value": "0x0",
        "input": "0x87517c4500000000000000000000000046ca7a592990a8d7396dc7d1d761c47c5370993e00000000000000000000000000b036b58a818b1bc34d502d3fe730db729e62ac000000000000000000000000ffffffffffffffffffffffffffffffffffffffff0000000000000000000000000000000000000000000000000000ffffffffffff",
        "nonce": "0x46f",
        "chainId": "0x515"
      },
      "additionalContracts": [],
      "isFixedGasLimit": false
    },
    {
      "hash": "0xd071bf2dfa311035c015c5b7113e73fafb52ff0546361cbc03ce7816289b6928",
      "transactionType": "CALL",
      "contractName": null,
      "contractAddress": "0x9cd2b0a732dd5e023a5539921e0fd1c30e198dba",
      "function": "swapExactTokensForTokens(uint256,uint256,bool,(address,address,uint24,int24,address),bytes,address,uint256)",
      "arguments": [
        "1000000000000000000",
        "0",
        "true",
        "(0x369b5a33E388a631F056E6a398927008CA4C5660, 0x46cA7A592990a8D7396Dc7d1D761c47C5370993e, 3000, 60, 0xbC395B61Ccd210Eaa3c0F69D1A2f6BFA7598C0c0)",
        "0x000000000000000000000000000000000000000000000002b5e3af16b1880000",
        "0x4b992F2Fbf714C0fCBb23baC5130Ace48CaD00cd",
        "1773582237"
      ],
      "transaction": {
        "from": "0x4b992f2fbf714c0fcbb23bac5130ace48cad00cd",
        "to": "0x9cd2b0a732dd5e023a5539921e0fd1c30e198dba",
        "gas": "0x511c1",
        "value": "0x0",
        "input": "0xb1a0d5710000000000000000000000000000000000000000000000000de0b6b3a764000000000000000000000000000000000000000000000000000000000000000000000000000000000000000000000000000000000000000000000000000000000001000000000000000000000000369b5a33e388a631f056e6a398927008ca4c566000000000000000000000000046ca7a592990a8d7396dc7d1d761c47c5370993e0000000000000000000000000000000000000000000000000000000000000bb8000000000000000000000000000000000000000000000000000000000000003c000000000000000000000000bc395b61ccd210eaa3c0f69d1a2f6bfa7598c0c000000000000000000000000000000000000000000000000000000000000001600000000000000000000000004b992f2fbf714c0fcbb23bac5130ace48cad00cd0000000000000000000000000000000000000000000000000000000069b6b79d0000000000000000000000000000000000000000000000000000000000000020000000000000000000000000000000000000000000000002b5e3af16b1880000",
        "nonce": "0x470",
        "chainId": "0x515"
      },
      "additionalContracts": [],
      "isFixedGasLimit": false
    },
    {
      "hash": "0xd97f4df7cfcb9883a0607d58f304a6c09978646709059ffbff9e81691024e7bb",
      "transactionType": "CALL",
      "contractName": null,
      "contractAddress": "0xe9c26cdbb509e1515d06d8eaca74c63e08143977",
      "function": "redeem(uint256,address)",
      "arguments": [
        "2000000000000000000000",
        "0x3e63905833eb3448e873801Cc9a1C6212bd4ff01"
      ],
      "transaction": {
        "from": "0x3e63905833eb3448e873801cc9a1c6212bd4ff01",
        "to": "0xe9c26cdbb509e1515d06d8eaca74c63e08143977",
        "gas": "0x3222f",
        "value": "0x0",
        "input": "0x7bde82f200000000000000000000000000000000000000000000006c6b935b8bbd4000000000000000000000000000003e63905833eb3448e873801cc9a1c6212bd4ff01",
        "nonce": "0x5",
        "chainId": "0x515"
      },
      "additionalContracts": [],
      "isFixedGasLimit": false
    }
  ],
  "receipts": [
    {
      "status": "0x1",
      "cumulativeGasUsed": "0xad1ac",
      "logs": [],
      "logsBloom": "0x00000000000000000000000000000000000000000000000000000000000000000000000000000000000000000000000000000000000000000000000000000000000000000000000000000000000000000000000000000000000000000000000000000000000000000000000000000000000000000000000000000000000000000000000000000000000000000000000000000000000000000000000000000000000000000000000000000000000000000000000000000000000000000000000000000000000000000000000000000000000000000000000000000000000000000000000000000000000000000000000000000000000000000000000000000000",
      "type": "0x0",
      "transactionHash": "0xcc10349a91cb2ca5e06c7063fa25408a4ec5b54b9564fbe92cc559a51aed455e",
      "transactionIndex": "0x8",
      "blockHash": "0xdedc3658d5c2de943e3edf88cac4102b9914ab88060bb5ae72cc90298dcaf47d",
      "blockNumber": "0x2c9081c",
      "gasUsed": "0x5208",
      "effectiveGasPrice": "0x3b9aca00",
      "blobGasUsed": "0x9c40",
      "from": "0x4b992f2fbf714c0fcbb23bac5130ace48cad00cd",
      "to": "0x3e63905833eb3448e873801cc9a1c6212bd4ff01",
      "contractAddress": null,
      "daFootprintGasScalar": "0x190",
      "l1BaseFeeScalar": "0x7d0",
      "l1BlobBaseFee": "0x1",
      "l1BlobBaseFeeScalar": "0xdbba0",
      "l1Fee": "0x76",
      "l1GasPrice": "0x9",
      "l1GasUsed": "0x640"
    },
    {
      "status": "0x1",
      "cumulativeGasUsed": "0x9cbde",
      "logs": [],
      "logsBloom": "0x00000000000000000000000000000000000000000000000000000000000000000000000000000000000000000000000000000000000000000000000000000000000000000000000000000000000000000000000000000000000000000000000000000000000000000000000000000000000000000000000000000000000000000000000000000000000000000000000000000000000000000000000000000000000000000000000000000000000000000000000000000000000000000000000000000000000000000000000000000000000000000000000000000000000000000000000000000000000000000000000000000000000000000000000000000000",
      "type": "0x0",
      "transactionHash": "0x5103ee74365a8b27932820bac6efbcf264b4a7a03b85e37244bd4f120528030f",
      "transactionIndex": "0x9",
      "blockHash": "0x6891ea8fc928161972534e461ed9f6b35e77f6826e914c6d5b9a8197b80a964b",
      "blockNumber": "0x2c9081d",
      "gasUsed": "0x5208",
      "effectiveGasPrice": "0x3b9aca00",
      "blobGasUsed": "0x9c40",
      "from": "0x4b992f2fbf714c0fcbb23bac5130ace48cad00cd",
      "to": "0xd98ecd012cfb0491b13665dcd68fb2c63c243bc4",
      "contractAddress": null,
      "daFootprintGasScalar": "0x190",
      "l1BaseFeeScalar": "0x7d0",
      "l1BlobBaseFee": "0x1",
      "l1BlobBaseFeeScalar": "0xdbba0",
      "l1Fee": "0x76",
      "l1GasPrice": "0x9",
      "l1GasUsed": "0x640"
    },
    {
      "status": "0x1",
      "cumulativeGasUsed": "0x79509",
      "logs": [
        {
          "address": "0x369b5a33e388a631f056e6a398927008ca4c5660",
          "topics": [
            "0xddf252ad1be2c89b69c2b068fc378daa952ba7f163c4a11628f55a4df523b3ef",
            "0x0000000000000000000000000000000000000000000000000000000000000000",
            "0x0000000000000000000000003e63905833eb3448e873801cc9a1c6212bd4ff01"
          ],
          "data": "0x00000000000000000000000000000000000000000000003635c9adc5dea00000",
          "blockHash": "0xad351812a781ddebc1605b236c31acad92ce2a8a22263f458c0f93b65897c31f",
          "blockNumber": "0x2c9081e",
          "blockTimestamp": "0x69b6b56a",
          "transactionHash": "0xb9aa5cb2815b45b1b7fe0c5912b9951743c47845ef80b561b2074a0756805c16",
          "transactionIndex": "0x6",
          "logIndex": "0x4",
          "removed": false
        }
      ],
      "logsBloom": "0x00000000000000000000000000000000000000000000000000000000000000080000000000000000000000000000000000000000000000000000000000000002000000000000000000000008000000000000000000000000000000000000000000000000020000000000000000000800000000000000000000000010000000000000000000000000000000000800000000000000000000000000000000000000000000000000000000000000000000000800000000000000000000000000000000000002000000000000000000000000040000000000000000000000000020000000000000000000000000000000020000000000000000000000000000000000",
      "type": "0x0",
      "transactionHash": "0xb9aa5cb2815b45b1b7fe0c5912b9951743c47845ef80b561b2074a0756805c16",
      "transactionIndex": "0x6",
      "blockHash": "0xad351812a781ddebc1605b236c31acad92ce2a8a22263f458c0f93b65897c31f",
      "blockNumber": "0x2c9081e",
      "gasUsed": "0xca7b",
      "effectiveGasPrice": "0x3b9aca00",
      "blobGasUsed": "0x9c40",
      "from": "0x3e63905833eb3448e873801cc9a1c6212bd4ff01",
      "to": "0x369b5a33e388a631f056e6a398927008ca4c5660",
      "contractAddress": null,
      "daFootprintGasScalar": "0x190",
      "l1BaseFeeScalar": "0x7d0",
      "l1BlobBaseFee": "0x1",
      "l1BlobBaseFeeScalar": "0xdbba0",
      "l1Fee": "0x76",
      "l1GasPrice": "0x9",
      "l1GasUsed": "0x640"
    },
    {
      "status": "0x1",
      "cumulativeGasUsed": "0x34473",
      "logs": [
        {
          "address": "0x46ca7a592990a8d7396dc7d1d761c47c5370993e",
          "topics": [
            "0xddf252ad1be2c89b69c2b068fc378daa952ba7f163c4a11628f55a4df523b3ef",
            "0x0000000000000000000000000000000000000000000000000000000000000000",
            "0x0000000000000000000000003e63905833eb3448e873801cc9a1c6212bd4ff01"
          ],
          "data": "0x00000000000000000000000000000000000000000000003635c9adc5dea00000",
          "blockHash": "0x82abb1c277f90dde4c081c22c6a520050f703e2c2ac525ec1efd2e5f7202a07d",
          "blockNumber": "0x2c90820",
          "blockTimestamp": "0x69b6b56c",
          "transactionHash": "0x6071655761e15888a3e1c06acfaea13f28b8101170e7f9cbaef0a0df93989603",
          "transactionIndex": "0x3",
          "logIndex": "0x1",
          "removed": false
        }
      ],
      "logsBloom": "0x00000000000000000000000000000000000000000000000000000000000000080000000000000000000000000200000200000000000000000000000000000000000000000000000000000008000000000000000000000000000000000000000000000000020000000000000000000800000000000000000000000010000000000000000000000000000000000000000000000000000000000000000000000000000000000000000000000000000000000800000000000000000000000000000000000082000000000000000000000000000000000000000000000000000020000000000000000000000000000000020000000000000000000000000000000000",
      "type": "0x0",
      "transactionHash": "0x6071655761e15888a3e1c06acfaea13f28b8101170e7f9cbaef0a0df93989603",
      "transactionIndex": "0x3",
      "blockHash": "0x82abb1c277f90dde4c081c22c6a520050f703e2c2ac525ec1efd2e5f7202a07d",
      "blockNumber": "0x2c90820",
      "gasUsed": "0xca7b",
      "effectiveGasPrice": "0x3b9aca00",
      "blobGasUsed": "0x9c40",
      "from": "0x3e63905833eb3448e873801cc9a1c6212bd4ff01",
      "to": "0x46ca7a592990a8d7396dc7d1d761c47c5370993e",
      "contractAddress": null,
      "daFootprintGasScalar": "0x190",
      "l1BaseFeeScalar": "0x7d0",
      "l1BlobBaseFee": "0x1",
      "l1BlobBaseFeeScalar": "0xdbba0",
      "l1Fee": "0x76",
      "l1GasPrice": "0x9",
      "l1GasUsed": "0x640"
    },
    {
      "status": "0x1",
      "cumulativeGasUsed": "0x4a2b2",
      "logs": [
        {
          "address": "0x369b5a33e388a631f056e6a398927008ca4c5660",
          "topics": [
            "0x8c5be1e5ebec7d5bd14f71427d1e84f3dd0314c0f7b2291e5b200ac8c7c3b925",
            "0x0000000000000000000000003e63905833eb3448e873801cc9a1c6212bd4ff01",
            "0x000000000000000000000000e9c26cdbb509e1515d06d8eaca74c63e08143977"
          ],
          "data": "0xffffffffffffffffffffffffffffffffffffffffffffffffffffffffffffffff",
          "blockHash": "0x86816b05fde1ddb71a54d00dffbb715afe2d8546ea129554c1c217e4ab47fd48",
          "blockNumber": "0x2c90823",
          "blockTimestamp": "0x69b6b56f",
          "transactionHash": "0x9f9c3cc5880f4e67dcebcd6e80692bd4207945d813cf935ab2f4daee6f539b76",
          "transactionIndex": "0x4",
          "logIndex": "0x2",
          "removed": false
        }
      ],
      "logsBloom": "0x00000000000000000000000000000000000800000000000000000000000000080000000000000000000000000000000000000000000000000000000000200002000000000000000000000000000040000000000000000000000000000000000000000000000000000000000000000000000000000000000000000000000000000000000000000000000000000800000000000000000000000000000000000000020000000000000000000000000000000800000000000000000000000000000000000000010000000000000000000000040000000000000000000000000000000010000000000000000000000000020000000000000000000000000000000000",
      "type": "0x0",
      "transactionHash": "0x9f9c3cc5880f4e67dcebcd6e80692bd4207945d813cf935ab2f4daee6f539b76",
      "transactionIndex": "0x4",
      "blockHash": "0x86816b05fde1ddb71a54d00dffbb715afe2d8546ea129554c1c217e4ab47fd48",
      "blockNumber": "0x2c90823",
      "gasUsed": "0xb888",
      "effectiveGasPrice": "0x3b9aca00",
      "blobGasUsed": "0x9c40",
      "from": "0x3e63905833eb3448e873801cc9a1c6212bd4ff01",
      "to": "0x369b5a33e388a631f056e6a398927008ca4c5660",
      "contractAddress": null,
      "daFootprintGasScalar": "0x190",
      "l1BaseFeeScalar": "0x7d0",
      "l1BlobBaseFee": "0x1",
      "l1BlobBaseFeeScalar": "0xdbba0",
      "l1Fee": "0x76",
      "l1GasPrice": "0x9",
      "l1GasUsed": "0x640"
    },
    {
      "status": "0x1",
      "cumulativeGasUsed": "0x33280",
      "logs": [
        {
          "address": "0x46ca7a592990a8d7396dc7d1d761c47c5370993e",
          "topics": [
            "0x8c5be1e5ebec7d5bd14f71427d1e84f3dd0314c0f7b2291e5b200ac8c7c3b925",
            "0x0000000000000000000000003e63905833eb3448e873801cc9a1c6212bd4ff01",
            "0x000000000000000000000000e9c26cdbb509e1515d06d8eaca74c63e08143977"
          ],
          "data": "0xffffffffffffffffffffffffffffffffffffffffffffffffffffffffffffffff",
          "blockHash": "0xec8a626dda23f99d3c5ad705705818b541a58d5d3713e4dcefca3522a50a3102",
          "blockNumber": "0x2c90826",
          "blockTimestamp": "0x69b6b572",
          "transactionHash": "0x0c722c7f82eefa004b5c8564439fb1f423751ace6f94e8127f37969868c13bb4",
          "transactionIndex": "0x3",
          "logIndex": "0x1",
          "removed": false
        }
      ],
      "logsBloom": "0x00000000000000000000000000000000000800000000000000000000000000080000000000000000000000000200000200000000000000000000000000200000000000000000000000000000000040000000000000000000000000000000000000000000000000000000000000000000000000000000000000000000000000000000000000000000000000000000000000000000000000000000000000000000020000000000000000000000000000000800000000000000000000000000000000000080010000000000000000000000000000000000000000000000000000000010000000000000000000000000020000000000000000000000000000000000",
      "type": "0x0",
      "transactionHash": "0x0c722c7f82eefa004b5c8564439fb1f423751ace6f94e8127f37969868c13bb4",
      "transactionIndex": "0x3",
      "blockHash": "0xec8a626dda23f99d3c5ad705705818b541a58d5d3713e4dcefca3522a50a3102",
      "blockNumber": "0x2c90826",
      "gasUsed": "0xb888",
      "effectiveGasPrice": "0x3b9aca00",
      "blobGasUsed": "0x9c40",
      "from": "0x3e63905833eb3448e873801cc9a1c6212bd4ff01",
      "to": "0x46ca7a592990a8d7396dc7d1d761c47c5370993e",
      "contractAddress": null,
      "daFootprintGasScalar": "0x190",
      "l1BaseFeeScalar": "0x7d0",
      "l1BlobBaseFee": "0x1",
      "l1BlobBaseFeeScalar": "0xdbba0",
      "l1Fee": "0x76",
      "l1GasPrice": "0x9",
      "l1GasUsed": "0x640"
    },
    {
      "status": "0x1",
      "cumulativeGasUsed": "0x71a35",
      "logs": [
        {
          "address": "0x369b5a33e388a631f056e6a398927008ca4c5660",
          "topics": [
            "0xddf252ad1be2c89b69c2b068fc378daa952ba7f163c4a11628f55a4df523b3ef",
            "0x0000000000000000000000003e63905833eb3448e873801cc9a1c6212bd4ff01",
            "0x000000000000000000000000e9c26cdbb509e1515d06d8eaca74c63e08143977"
          ],
          "data": "0x00000000000000000000000000000000000000000000003635c9adc5dea00000",
          "blockHash": "0xa04ca0df01f8f66d7180b31b7d981de4a7b632e862a00e1aa0600e15948cffee",
          "blockNumber": "0x2c90829",
          "blockTimestamp": "0x69b6b575",
          "transactionHash": "0x83fe4c785a09676720decf30afde29d131ea5f68f25e410d3c858e5eef2b4d9e",
          "transactionIndex": "0x4",
          "logIndex": "0x2",
          "removed": false
        },
        {
          "address": "0x46ca7a592990a8d7396dc7d1d761c47c5370993e",
          "topics": [
            "0xddf252ad1be2c89b69c2b068fc378daa952ba7f163c4a11628f55a4df523b3ef",
            "0x0000000000000000000000003e63905833eb3448e873801cc9a1c6212bd4ff01",
            "0x000000000000000000000000e9c26cdbb509e1515d06d8eaca74c63e08143977"
          ],
          "data": "0x00000000000000000000000000000000000000000000003635c9adc5dea00000",
          "blockHash": "0xa04ca0df01f8f66d7180b31b7d981de4a7b632e862a00e1aa0600e15948cffee",
          "blockNumber": "0x2c90829",
          "blockTimestamp": "0x69b6b575",
          "transactionHash": "0x83fe4c785a09676720decf30afde29d131ea5f68f25e410d3c858e5eef2b4d9e",
          "transactionIndex": "0x4",
          "logIndex": "0x3",
          "removed": false
        },
        {
          "address": "0xfcf54f8709423379891b9fc20bb2e4e8f6dac6bb",
          "topics": [
            "0xddf252ad1be2c89b69c2b068fc378daa952ba7f163c4a11628f55a4df523b3ef",
            "0x0000000000000000000000000000000000000000000000000000000000000000",
            "0x0000000000000000000000003e63905833eb3448e873801cc9a1c6212bd4ff01"
          ],
          "data": "0x00000000000000000000000000000000000000000000006c6b935b8bbd400000",
          "blockHash": "0xa04ca0df01f8f66d7180b31b7d981de4a7b632e862a00e1aa0600e15948cffee",
          "blockNumber": "0x2c90829",
          "blockTimestamp": "0x69b6b575",
          "transactionHash": "0x83fe4c785a09676720decf30afde29d131ea5f68f25e410d3c858e5eef2b4d9e",
          "transactionIndex": "0x4",
          "logIndex": "0x4",
          "removed": false
        },
        {
          "address": "0xe9c26cdbb509e1515d06d8eaca74c63e08143977",
          "topics": [
            "0xf3b2a76575670b4eff5a4ad3639d40d32f7ca987adac169e6f9b89a3ab857d27",
            "0x0000000000000000000000003e63905833eb3448e873801cc9a1c6212bd4ff01",
            "0x0000000000000000000000003e63905833eb3448e873801cc9a1c6212bd4ff01"
          ],
          "data": "0x00000000000000000000000000000000000000000000003635c9adc5dea0000000000000000000000000000000000000000000000000003635c9adc5dea0000000000000000000000000000000000000000000000000006c6b935b8bbd40000000000000000000000000000000000000000000000000006c6b935b8bbd400000",
          "blockHash": "0xa04ca0df01f8f66d7180b31b7d981de4a7b632e862a00e1aa0600e15948cffee",
          "blockNumber": "0x2c90829",
          "blockTimestamp": "0x69b6b575",
          "transactionHash": "0x83fe4c785a09676720decf30afde29d131ea5f68f25e410d3c858e5eef2b4d9e",
          "transactionIndex": "0x4",
          "logIndex": "0x5",
          "removed": false
        }
      ],
      "logsBloom": "0x000000000000000040010000000000000008000004000000000000000000000800000000000000000000000002000102000000000000000000000000000000020000000000000000000000080000400000000000000000000000000000100000000000000200000000000000000008000000000000000000000000100000000000000000100000000000000008000000000000000000000000000000000000000000000000000000000000000000000008000000000001000000000000000000000000c2010000000000000000000000040000000000000000000000000020000000004000000000000000000000020000000000000000000000000000000000",
      "type": "0x0",
      "transactionHash": "0x83fe4c785a09676720decf30afde29d131ea5f68f25e410d3c858e5eef2b4d9e",
      "transactionIndex": "0x4",
      "blockHash": "0xa04ca0df01f8f66d7180b31b7d981de4a7b632e862a00e1aa0600e15948cffee",
      "blockNumber": "0x2c90829",
      "gasUsed": "0x31a43",
      "effectiveGasPrice": "0x3b9aca00",
      "blobGasUsed": "0x9c40",
      "from": "0x3e63905833eb3448e873801cc9a1c6212bd4ff01",
      "to": "0xe9c26cdbb509e1515d06d8eaca74c63e08143977",
      "contractAddress": null,
      "daFootprintGasScalar": "0x190",
      "l1BaseFeeScalar": "0x7d0",
      "l1BlobBaseFee": "0x1",
      "l1BlobBaseFeeScalar": "0xdbba0",
      "l1Fee": "0x76",
      "l1GasPrice": "0x9",
      "l1GasUsed": "0x640"
    },
    {
      "status": "0x1",
      "cumulativeGasUsed": "0xa43c5",
      "logs": [
        {
          "address": "0x369b5a33e388a631f056e6a398927008ca4c5660",
          "topics": [
            "0xddf252ad1be2c89b69c2b068fc378daa952ba7f163c4a11628f55a4df523b3ef",
            "0x0000000000000000000000000000000000000000000000000000000000000000",
            "0x000000000000000000000000d98ecd012cfb0491b13665dcd68fb2c63c243bc4"
          ],
          "data": "0x00000000000000000000000000000000000000000000003635c9adc5dea00000",
          "blockHash": "0x32417ffcaeea9d1d9b7f3e90d39525eec74a303e56d7d420073a021004f6ee40",
          "blockNumber": "0x2c9082c",
          "blockTimestamp": "0x69b6b578",
          "transactionHash": "0xe966532f5f95ae7b47d62dbd9e352589bff13c92424361082a471445bfd00e95",
          "transactionIndex": "0x7",
          "logIndex": "0x9",
          "removed": false
        }
      ],
      "logsBloom": "0x00000000000000000000000000000000000000000000000000000000000000000400000000000000000000000000000000000000000000000000000000000002000000000000000000000008000000000000000000000000000000000000400000000000020000000000000000000800000000000000000000000010000000000000000000000000000000000800000000000000000000100000000000000000000000000000000000000000000000000000000000000000000000000000000000000002000000000000000000000000040000000000000000000000000020000000000000000000000000000000000000000000000000000000000000000000",
      "type": "0x0",
      "transactionHash": "0xe966532f5f95ae7b47d62dbd9e352589bff13c92424361082a471445bfd00e95",
      "transactionIndex": "0x7",
      "blockHash": "0x32417ffcaeea9d1d9b7f3e90d39525eec74a303e56d7d420073a021004f6ee40",
      "blockNumber": "0x2c9082c",
      "gasUsed": "0xca7b",
      "effectiveGasPrice": "0x3b9aca00",
      "blobGasUsed": "0x9c40",
      "from": "0xd98ecd012cfb0491b13665dcd68fb2c63c243bc4",
      "to": "0x369b5a33e388a631f056e6a398927008ca4c5660",
      "contractAddress": null,
      "daFootprintGasScalar": "0x190",
      "l1BaseFeeScalar": "0x7d0",
      "l1BlobBaseFee": "0x1",
      "l1BlobBaseFeeScalar": "0xdbba0",
      "l1Fee": "0x76",
      "l1GasPrice": "0x9",
      "l1GasUsed": "0x640"
    },
    {
      "status": "0x1",
      "cumulativeGasUsed": "0x69f93",
      "logs": [
        {
          "address": "0x46ca7a592990a8d7396dc7d1d761c47c5370993e",
          "topics": [
            "0xddf252ad1be2c89b69c2b068fc378daa952ba7f163c4a11628f55a4df523b3ef",
            "0x0000000000000000000000000000000000000000000000000000000000000000",
            "0x000000000000000000000000d98ecd012cfb0491b13665dcd68fb2c63c243bc4"
          ],
          "data": "0x00000000000000000000000000000000000000000000003635c9adc5dea00000",
          "blockHash": "0x6ba4c739de259195aef2366213bfc33aeef465d7736008d7705dd31b866dec15",
          "blockNumber": "0x2c90830",
          "blockTimestamp": "0x69b6b57c",
          "transactionHash": "0x152ddf8bdadb13b309e9adfe7b135e65ed2cac00808e4b407ffcb333b45b3c19",
          "transactionIndex": "0x5",
          "logIndex": "0x4",
          "removed": false
        }
      ],
      "logsBloom": "0x00000000000000000000000000000000000000000000000000000000000000000400000000000000000000000200000200000000000000000000000000000000000000000000000000000008000000000000000000000000000000000000400000000000020000000000000000000800000000000000000000000010000000000000000000000000000000000000000000000000000000100000000000000000000000000000000000000000000000000000000000000000000000000000000000000082000000000000000000000000000000000000000000000000000020000000000000000000000000000000000000000000000000000000000000000000",
      "type": "0x0",
      "transactionHash": "0x152ddf8bdadb13b309e9adfe7b135e65ed2cac00808e4b407ffcb333b45b3c19",
      "transactionIndex": "0x5",
      "blockHash": "0x6ba4c739de259195aef2366213bfc33aeef465d7736008d7705dd31b866dec15",
      "blockNumber": "0x2c90830",
      "gasUsed": "0xca7b",
      "effectiveGasPrice": "0x3b9aca00",
      "blobGasUsed": "0x9c40",
      "from": "0xd98ecd012cfb0491b13665dcd68fb2c63c243bc4",
      "to": "0x46ca7a592990a8d7396dc7d1d761c47c5370993e",
      "contractAddress": null,
      "daFootprintGasScalar": "0x190",
      "l1BaseFeeScalar": "0x7d0",
      "l1BlobBaseFee": "0x1",
      "l1BlobBaseFeeScalar": "0xdbba0",
      "l1Fee": "0x76",
      "l1GasPrice": "0x9",
      "l1GasUsed": "0x640"
    },
    {
      "status": "0x1",
      "cumulativeGasUsed": "0x33280",
      "logs": [
        {
          "address": "0x369b5a33e388a631f056e6a398927008ca4c5660",
          "topics": [
            "0x8c5be1e5ebec7d5bd14f71427d1e84f3dd0314c0f7b2291e5b200ac8c7c3b925",
            "0x000000000000000000000000d98ecd012cfb0491b13665dcd68fb2c63c243bc4",
            "0x000000000000000000000000e9c26cdbb509e1515d06d8eaca74c63e08143977"
          ],
          "data": "0xffffffffffffffffffffffffffffffffffffffffffffffffffffffffffffffff",
          "blockHash": "0xa216494c667c06071b9fe424f7849346666479377e58168a50061cac5e74eb76",
          "blockNumber": "0x2c90833",
          "blockTimestamp": "0x69b6b57f",
          "transactionHash": "0x6d6cd849e8251ea021e542ef354cb1876414bb3c1e142e8fb54ed17105e59696",
          "transactionIndex": "0x3",
          "logIndex": "0x1",
          "removed": false
        }
      ],
      "logsBloom": "0x00000000000000000000000000000000000800000000000000000000000000000400000000000000000000000000000000000000000000000000000000200002000000000000000000000000000040000000000000000000000000000000400000000000000000000000000000000000000000000000000000000000000000000000000000000000000000000800000000000000000000100000000000000000020000000000000000000000000000000000000000000000000000000000000000000000010000000000000000000000040000000000000000000000000000000010000000000000000000000000000000000000000000000000000000000000",
      "type": "0x0",
      "transactionHash": "0x6d6cd849e8251ea021e542ef354cb1876414bb3c1e142e8fb54ed17105e59696",
      "transactionIndex": "0x3",
      "blockHash": "0xa216494c667c06071b9fe424f7849346666479377e58168a50061cac5e74eb76",
      "blockNumber": "0x2c90833",
      "gasUsed": "0xb888",
      "effectiveGasPrice": "0x3b9aca00",
      "blobGasUsed": "0x9c40",
      "from": "0xd98ecd012cfb0491b13665dcd68fb2c63c243bc4",
      "to": "0x369b5a33e388a631f056e6a398927008ca4c5660",
      "contractAddress": null,
      "daFootprintGasScalar": "0x190",
      "l1BaseFeeScalar": "0x7d0",
      "l1BlobBaseFee": "0x1",
      "l1BlobBaseFeeScalar": "0xdbba0",
      "l1Fee": "0x76",
      "l1GasPrice": "0x9",
      "l1GasUsed": "0x640"
    },
    {
      "status": "0x1",
      "cumulativeGasUsed": "0x628a0",
      "logs": [
        {
          "address": "0x46ca7a592990a8d7396dc7d1d761c47c5370993e",
          "topics": [
            "0x8c5be1e5ebec7d5bd14f71427d1e84f3dd0314c0f7b2291e5b200ac8c7c3b925",
            "0x000000000000000000000000d98ecd012cfb0491b13665dcd68fb2c63c243bc4",
            "0x000000000000000000000000e9c26cdbb509e1515d06d8eaca74c63e08143977"
          ],
          "data": "0xffffffffffffffffffffffffffffffffffffffffffffffffffffffffffffffff",
          "blockHash": "0x4f8b001d3d8b88ea914c8264af355558352bf048eff57eedc317a845d03ffcd5",
          "blockNumber": "0x2c90835",
          "blockTimestamp": "0x69b6b581",
          "transactionHash": "0xfd1666af78f9755018c2b747d8da8c1965a641569d288578c58a45a0e4a4ce2a",
          "transactionIndex": "0x5",
          "logIndex": "0x3",
          "removed": false
        }
      ],
      "logsBloom": "0x00000000000000000000000000000000000800000000000000000000000000000400000000000000000000000200000200000000000000000000000000200000000000000000000000000000000040000000000000000000000000000000400000000000000000000000000000000000000000000000000000000000000000000000000000000000000000000000000000000000000000100000000000000000020000000000000000000000000000000000000000000000000000000000000000000080010000000000000000000000000000000000000000000000000000000010000000000000000000000000000000000000000000000000000000000000",
      "type": "0x0",
      "transactionHash": "0xfd1666af78f9755018c2b747d8da8c1965a641569d288578c58a45a0e4a4ce2a",
      "transactionIndex": "0x5",
      "blockHash": "0x4f8b001d3d8b88ea914c8264af355558352bf048eff57eedc317a845d03ffcd5",
      "blockNumber": "0x2c90835",
      "gasUsed": "0xb888",
      "effectiveGasPrice": "0x3b9aca00",
      "blobGasUsed": "0x9c40",
      "from": "0xd98ecd012cfb0491b13665dcd68fb2c63c243bc4",
      "to": "0x46ca7a592990a8d7396dc7d1d761c47c5370993e",
      "contractAddress": null,
      "daFootprintGasScalar": "0x190",
      "l1BaseFeeScalar": "0x7d0",
      "l1BlobBaseFee": "0x1",
      "l1BlobBaseFeeScalar": "0xdbba0",
      "l1Fee": "0x76",
      "l1GasPrice": "0x9",
      "l1GasUsed": "0x640"
    },
    {
      "status": "0x1",
      "cumulativeGasUsed": "0xa08bb",
      "logs": [
        {
          "address": "0x369b5a33e388a631f056e6a398927008ca4c5660",
          "topics": [
            "0xddf252ad1be2c89b69c2b068fc378daa952ba7f163c4a11628f55a4df523b3ef",
            "0x000000000000000000000000d98ecd012cfb0491b13665dcd68fb2c63c243bc4",
            "0x000000000000000000000000e9c26cdbb509e1515d06d8eaca74c63e08143977"
          ],
          "data": "0x00000000000000000000000000000000000000000000003635c9adc5dea00000",
          "blockHash": "0xf99fb0965750618f09c85b46dd67c0e5aef112b399a4f9fce9cc38ca96179e34",
          "blockNumber": "0x2c90837",
          "blockTimestamp": "0x69b6b583",
          "transactionHash": "0x20e15a22c8a6ffc0af5f976f041bce8897fc66adb3952ff13d31208f98906abd",
          "transactionIndex": "0x7",
          "logIndex": "0x5",
          "removed": false
        },
        {
          "address": "0x46ca7a592990a8d7396dc7d1d761c47c5370993e",
          "topics": [
            "0xddf252ad1be2c89b69c2b068fc378daa952ba7f163c4a11628f55a4df523b3ef",
            "0x000000000000000000000000d98ecd012cfb0491b13665dcd68fb2c63c243bc4",
            "0x000000000000000000000000e9c26cdbb509e1515d06d8eaca74c63e08143977"
          ],
          "data": "0x00000000000000000000000000000000000000000000003635c9adc5dea00000",
          "blockHash": "0xf99fb0965750618f09c85b46dd67c0e5aef112b399a4f9fce9cc38ca96179e34",
          "blockNumber": "0x2c90837",
          "blockTimestamp": "0x69b6b583",
          "transactionHash": "0x20e15a22c8a6ffc0af5f976f041bce8897fc66adb3952ff13d31208f98906abd",
          "transactionIndex": "0x7",
          "logIndex": "0x6",
          "removed": false
        },
        {
          "address": "0xfcf54f8709423379891b9fc20bb2e4e8f6dac6bb",
          "topics": [
            "0xddf252ad1be2c89b69c2b068fc378daa952ba7f163c4a11628f55a4df523b3ef",
            "0x0000000000000000000000000000000000000000000000000000000000000000",
            "0x000000000000000000000000d98ecd012cfb0491b13665dcd68fb2c63c243bc4"
          ],
          "data": "0x00000000000000000000000000000000000000000000006c6b935b8bbd400000",
          "blockHash": "0xf99fb0965750618f09c85b46dd67c0e5aef112b399a4f9fce9cc38ca96179e34",
          "blockNumber": "0x2c90837",
          "blockTimestamp": "0x69b6b583",
          "transactionHash": "0x20e15a22c8a6ffc0af5f976f041bce8897fc66adb3952ff13d31208f98906abd",
          "transactionIndex": "0x7",
          "logIndex": "0x7",
          "removed": false
        },
        {
          "address": "0xe9c26cdbb509e1515d06d8eaca74c63e08143977",
          "topics": [
            "0xf3b2a76575670b4eff5a4ad3639d40d32f7ca987adac169e6f9b89a3ab857d27",
            "0x000000000000000000000000d98ecd012cfb0491b13665dcd68fb2c63c243bc4",
            "0x000000000000000000000000d98ecd012cfb0491b13665dcd68fb2c63c243bc4"
          ],
          "data": "0x00000000000000000000000000000000000000000000003635c9adc5dea0000000000000000000000000000000000000000000000000003635c9adc5dea0000000000000000000000000000000000000000000000000006c6b935b8bbd40000000000000000000000000000000000000000000000000006c6b935b8bbd400000",
          "blockHash": "0xf99fb0965750618f09c85b46dd67c0e5aef112b399a4f9fce9cc38ca96179e34",
          "blockNumber": "0x2c90837",
          "blockTimestamp": "0x69b6b583",
          "transactionHash": "0x20e15a22c8a6ffc0af5f976f041bce8897fc66adb3952ff13d31208f98906abd",
          "transactionIndex": "0x7",
          "logIndex": "0x8",
          "removed": false
        }
      ],
      "logsBloom": "0x000000000000000040010000000000000008000004000000000000000000000004000000000000000000000002000102000000000000000000000000000000020000000000000000000000080000400000000000000000000000000000104000000000000200000000000000000008000000000000000000000000100000000000000000100000000000000008000000000000000000001000000000000000000000000000000000000000000000000000000000000001000000000000000000000000c2010000000000000000000000040000000000000000000000000020000000004000000000000000000000000000000000000000000000000000000000",
      "type": "0x0",
      "transactionHash": "0x20e15a22c8a6ffc0af5f976f041bce8897fc66adb3952ff13d31208f98906abd",
      "transactionIndex": "0x7",
      "blockHash": "0xf99fb0965750618f09c85b46dd67c0e5aef112b399a4f9fce9cc38ca96179e34",
      "blockNumber": "0x2c90837",
      "gasUsed": "0x1ce07",
      "effectiveGasPrice": "0x3b9aca00",
      "blobGasUsed": "0x9c40",
      "from": "0xd98ecd012cfb0491b13665dcd68fb2c63c243bc4",
      "to": "0xe9c26cdbb509e1515d06d8eaca74c63e08143977",
      "contractAddress": null,
      "daFootprintGasScalar": "0x190",
      "l1BaseFeeScalar": "0x7d0",
      "l1BlobBaseFee": "0x1",
      "l1BlobBaseFeeScalar": "0xdbba0",
      "l1Fee": "0x76",
      "l1GasPrice": "0x9",
      "l1GasUsed": "0x640"
    },
    {
      "status": "0x1",
      "cumulativeGasUsed": "0x91694",
      "logs": [
        {
          "address": "0x369b5a33e388a631f056e6a398927008ca4c5660",
          "topics": [
            "0xddf252ad1be2c89b69c2b068fc378daa952ba7f163c4a11628f55a4df523b3ef",
            "0x0000000000000000000000000000000000000000000000000000000000000000",
            "0x0000000000000000000000004b992f2fbf714c0fcbb23bac5130ace48cad00cd"
          ],
          "data": "0x00000000000000000000000000000000000000000000006c6b935b8bbd400000",
          "blockHash": "0xccdb511599e989a33d10d32c1bfc9d2e6db8bfb347cafad8ff8f94170c5329fc",
          "blockNumber": "0x2c90838",
          "blockTimestamp": "0x69b6b584",
          "transactionHash": "0xf5965f52b4cc28e07dfff9f407e1cdf35e8ab821183776d84b9228418309cf85",
          "transactionIndex": "0x7",
          "logIndex": "0x6",
          "removed": false
        }
      ],
      "logsBloom": "0x00000000000000000000000000000000000000000000000000000000000000000000000000000000000000000000000000000002000000000000000000000002000000000000000000000008000000000000000000000000000100000000000000000000020000000000000000020800000000000000000000000010000000000000000000000000000000000800000000000000000000000000000000000000000000000000000000000000000000000000000000000000000000000000000000000002000000000000000000000000040000000000000000000000000020000000000000000000000000000000000000000000000000000000000000000000",
      "type": "0x0",
      "transactionHash": "0xf5965f52b4cc28e07dfff9f407e1cdf35e8ab821183776d84b9228418309cf85",
      "transactionIndex": "0x7",
      "blockHash": "0xccdb511599e989a33d10d32c1bfc9d2e6db8bfb347cafad8ff8f94170c5329fc",
      "blockNumber": "0x2c90838",
      "gasUsed": "0x87a3",
      "effectiveGasPrice": "0x3b9aca00",
      "blobGasUsed": "0x9c40",
      "from": "0x4b992f2fbf714c0fcbb23bac5130ace48cad00cd",
      "to": "0x369b5a33e388a631f056e6a398927008ca4c5660",
      "contractAddress": null,
      "daFootprintGasScalar": "0x190",
      "l1BaseFeeScalar": "0x7d0",
      "l1BlobBaseFee": "0x1",
      "l1BlobBaseFeeScalar": "0xdbba0",
      "l1Fee": "0x76",
      "l1GasPrice": "0x9",
      "l1GasUsed": "0x640"
    },
    {
      "status": "0x1",
      "cumulativeGasUsed": "0x75231",
      "logs": [
        {
          "address": "0x46ca7a592990a8d7396dc7d1d761c47c5370993e",
          "topics": [
            "0xddf252ad1be2c89b69c2b068fc378daa952ba7f163c4a11628f55a4df523b3ef",
            "0x0000000000000000000000000000000000000000000000000000000000000000",
            "0x0000000000000000000000004b992f2fbf714c0fcbb23bac5130ace48cad00cd"
          ],
          "data": "0x00000000000000000000000000000000000000000000006c6b935b8bbd400000",
          "blockHash": "0xbf6f9413df8194dbb674099ab4ae448fc31be55951e541bc8fc5f1f3f364fc15",
          "blockNumber": "0x2c90839",
          "blockTimestamp": "0x69b6b585",
          "transactionHash": "0x138f451caff22843d387f2b8fc76e490f917d80aeb9c3f10f5baeb2ff18e13dc",
          "transactionIndex": "0x6",
          "logIndex": "0x4",
          "removed": false
        }
      ],
      "logsBloom": "0x00000000000000000000000000000000000000000000000000000000000000000000000000000000000000000200000200000002000000000000000000000000000000000000000000000008000000000000000000000000000100000000000000000000020000000000000000020800000000000000000000000010000000000000000000000000000000000000000000000000000000000000000000000000000000000000000000000000000000000000000000000000000000000000000000000082000000000000000000000000000000000000000000000000000020000000000000000000000000000000000000000000000000000000000000000000",
      "type": "0x0",
      "transactionHash": "0x138f451caff22843d387f2b8fc76e490f917d80aeb9c3f10f5baeb2ff18e13dc",
      "transactionIndex": "0x6",
      "blockHash": "0xbf6f9413df8194dbb674099ab4ae448fc31be55951e541bc8fc5f1f3f364fc15",
      "blockNumber": "0x2c90839",
      "gasUsed": "0x87a3",
      "effectiveGasPrice": "0x3b9aca00",
      "blobGasUsed": "0x9c40",
      "from": "0x4b992f2fbf714c0fcbb23bac5130ace48cad00cd",
      "to": "0x46ca7a592990a8d7396dc7d1d761c47c5370993e",
      "contractAddress": null,
      "daFootprintGasScalar": "0x190",
      "l1BaseFeeScalar": "0x7d0",
      "l1BlobBaseFee": "0x1",
      "l1BlobBaseFeeScalar": "0xdbba0",
      "l1Fee": "0x76",
      "l1GasPrice": "0x9",
      "l1GasUsed": "0x640"
    },
    {
      "status": "0x1",
      "cumulativeGasUsed": "0x301a7",
      "logs": [
        {
          "address": "0x369b5a33e388a631f056e6a398927008ca4c5660",
          "topics": [
            "0xddf252ad1be2c89b69c2b068fc378daa952ba7f163c4a11628f55a4df523b3ef",
            "0x0000000000000000000000000000000000000000000000000000000000000000",
            "0x000000000000000000000000e9c26cdbb509e1515d06d8eaca74c63e08143977"
          ],
          "data": "0x0000000000000000000000000000000000000000000000015af1d78b58c40000",
          "blockHash": "0x7150134df9c115b83af0bfbe52ddb0a06b1867d1592659bade541629e448dd4d",
          "blockNumber": "0x2c9083c",
          "blockTimestamp": "0x69b6b588",
          "transactionHash": "0x879033540deae355bea1fbf88705cecedd156b76ef86631e44dfc83c900dd245",
          "transactionIndex": "0x3",
          "logIndex": "0x1",
          "removed": false
        }
      ],
      "logsBloom": "0x00000000000000000000000000000000000800000000000000000000000000000000000000000000000000000000000000000000000000000000000000000002000000000000000000000008000040000000000000000000000000000000000000000000020000000000000000000800000000000000000000000010000000000000000000000000000000000800000000000000000000000000000000000000000000000000000000000000000000000000000000000000000000000000000000000002010000000000000000000000040000000000000000000000000020000000000000000000000000000000000000000000000000000000000000000000",
      "type": "0x0",
      "transactionHash": "0x879033540deae355bea1fbf88705cecedd156b76ef86631e44dfc83c900dd245",
      "transactionIndex": "0x3",
      "blockHash": "0x7150134df9c115b83af0bfbe52ddb0a06b1867d1592659bade541629e448dd4d",
      "blockNumber": "0x2c9083c",
      "gasUsed": "0x87af",
      "effectiveGasPrice": "0x3b9aca00",
      "blobGasUsed": "0x9c40",
      "from": "0x4b992f2fbf714c0fcbb23bac5130ace48cad00cd",
      "to": "0x369b5a33e388a631f056e6a398927008ca4c5660",
      "contractAddress": null,
      "daFootprintGasScalar": "0x190",
      "l1BaseFeeScalar": "0x7d0",
      "l1BlobBaseFee": "0x1",
      "l1BlobBaseFeeScalar": "0xdbba0",
      "l1Fee": "0x76",
      "l1GasPrice": "0x9",
      "l1GasUsed": "0x640"
    },
    {
      "status": "0x1",
      "cumulativeGasUsed": "0x99f47",
      "logs": [
        {
          "address": "0x46ca7a592990a8d7396dc7d1d761c47c5370993e",
          "topics": [
            "0xddf252ad1be2c89b69c2b068fc378daa952ba7f163c4a11628f55a4df523b3ef",
            "0x0000000000000000000000000000000000000000000000000000000000000000",
            "0x000000000000000000000000e9c26cdbb509e1515d06d8eaca74c63e08143977"
          ],
          "data": "0x0000000000000000000000000000000000000000000000015af1d78b58c40000",
          "blockHash": "0x739119f9d4cfa2714fd2e60b3b70deb49eb1589b4b437fd37c3db5dcf7755738",
          "blockNumber": "0x2c9083e",
          "blockTimestamp": "0x69b6b58a",
          "transactionHash": "0x62e517ce4f08a53dfc83ec94f47e65bf3260fbb76ede7adc44411626abf2fe99",
          "transactionIndex": "0x7",
          "logIndex": "0x8",
          "removed": false
        }
      ],
      "logsBloom": "0x00000000000000000000000000000000000800000000000000000000000000000000000000000000000000000200000200000000000000000000000000000000000000000000000000000008000040000000000000000000000000000000000000000000020000000000000000000800000000000000000000000010000000000000000000000000000000000000000000000000000000000000000000000000000000000000000000000000000000000000000000000000000000000000000000000082010000000000000000000000000000000000000000000000000020000000000000000000000000000000000000000000000000000000000000000000",
      "type": "0x0",
      "transactionHash": "0x62e517ce4f08a53dfc83ec94f47e65bf3260fbb76ede7adc44411626abf2fe99",
      "transactionIndex": "0x7",
      "blockHash": "0x739119f9d4cfa2714fd2e60b3b70deb49eb1589b4b437fd37c3db5dcf7755738",
      "blockNumber": "0x2c9083e",
      "gasUsed": "0x87af",
      "effectiveGasPrice": "0x3b9aca00",
      "blobGasUsed": "0x9c40",
      "from": "0x4b992f2fbf714c0fcbb23bac5130ace48cad00cd",
      "to": "0x46ca7a592990a8d7396dc7d1d761c47c5370993e",
      "contractAddress": null,
      "daFootprintGasScalar": "0x190",
      "l1BaseFeeScalar": "0x7d0",
      "l1BlobBaseFee": "0x1",
      "l1BlobBaseFeeScalar": "0xdbba0",
      "l1Fee": "0x76",
      "l1GasPrice": "0x9",
      "l1GasUsed": "0x640"
    },
    {
      "status": "0x1",
      "cumulativeGasUsed": "0x93dd8",
      "logs": [
        {
          "address": "0x369b5a33e388a631f056e6a398927008ca4c5660",
          "topics": [
            "0x8c5be1e5ebec7d5bd14f71427d1e84f3dd0314c0f7b2291e5b200ac8c7c3b925",
            "0x0000000000000000000000004b992f2fbf714c0fcbb23bac5130ace48cad00cd",
            "0x000000000000000000000000000000000022d473030f116ddee9f6b43ac78ba3"
          ],
          "data": "0xffffffffffffffffffffffffffffffffffffffffffffffffffffffffffffffff",
          "blockHash": "0xf234461653a77cf1936f2a2ac5a487fc917079f1d25c4f45a9c2603e761bd335",
          "blockNumber": "0x2c9083f",
          "blockTimestamp": "0x69b6b58b",
          "transactionHash": "0xf6fa2123957c708fad2c53b820ce1d0547b2077f1d5b8bb2d2267ceecf82a865",
          "transactionIndex": "0x7",
          "logIndex": "0x6",
          "removed": false
        }
      ],
      "logsBloom": "0x00000000000000000000000000000000000000000000000000000000000000000000000000000000000000000000000000000002800000000000000000200002000000000000000000004000000000000000000000000800000100000000000000000000000000000000000000020000000000000000000000000000000000000000000000000000000000000800000000000000000000000000000000000000020000000000000000000000000000000000000000000000000000000000000000000000000000000000000000000000040000000000000000000000000000000010000000000000000000000000000000000000000000000000000000000000",
      "type": "0x0",
      "transactionHash": "0xf6fa2123957c708fad2c53b820ce1d0547b2077f1d5b8bb2d2267ceecf82a865",
      "transactionIndex": "0x7",
      "blockHash": "0xf234461653a77cf1936f2a2ac5a487fc917079f1d25c4f45a9c2603e761bd335",
      "blockNumber": "0x2c9083f",
      "gasUsed": "0x6a90",
      "effectiveGasPrice": "0x3b9aca00",
      "blobGasUsed": "0x9c40",
      "from": "0x4b992f2fbf714c0fcbb23bac5130ace48cad00cd",
      "to": "0x369b5a33e388a631f056e6a398927008ca4c5660",
      "contractAddress": null,
      "daFootprintGasScalar": "0x190",
      "l1BaseFeeScalar": "0x7d0",
      "l1BlobBaseFee": "0x1",
      "l1BlobBaseFeeScalar": "0xdbba0",
      "l1Fee": "0x76",
      "l1GasPrice": "0x9",
      "l1GasUsed": "0x640"
    },
    {
      "status": "0x1",
      "cumulativeGasUsed": "0x2e488",
      "logs": [
        {
          "address": "0x46ca7a592990a8d7396dc7d1d761c47c5370993e",
          "topics": [
            "0x8c5be1e5ebec7d5bd14f71427d1e84f3dd0314c0f7b2291e5b200ac8c7c3b925",
            "0x0000000000000000000000004b992f2fbf714c0fcbb23bac5130ace48cad00cd",
            "0x000000000000000000000000000000000022d473030f116ddee9f6b43ac78ba3"
          ],
          "data": "0xffffffffffffffffffffffffffffffffffffffffffffffffffffffffffffffff",
          "blockHash": "0xdeba7b86646af34b9ace1a44ef9bbd14baef28da0ff1cf08e879b8f2c4f76a0a",
          "blockNumber": "0x2c90842",
          "blockTimestamp": "0x69b6b58e",
          "transactionHash": "0x40633fb8f2d990fcd3c7a8092e660d86cdbf2044bc981fb179138aa4f0bf40b9",
          "transactionIndex": "0x3",
          "logIndex": "0x1",
          "removed": false
        }
      ],
      "logsBloom": "0x00000000000000000000000000000000000000000000000000000000000000000000000000000000000000000200000200000002800000000000000000200000000000000000000000004000000000000000000000000800000100000000000000000000000000000000000000020000000000000000000000000000000000000000000000000000000000000000000000000000000000000000000000000000020000000000000000000000000000000000000000000000000000000000000000000080000000000000000000000000000000000000000000000000000000000010000000000000000000000000000000000000000000000000000000000000",
      "type": "0x0",
      "transactionHash": "0x40633fb8f2d990fcd3c7a8092e660d86cdbf2044bc981fb179138aa4f0bf40b9",
      "transactionIndex": "0x3",
      "blockHash": "0xdeba7b86646af34b9ace1a44ef9bbd14baef28da0ff1cf08e879b8f2c4f76a0a",
      "blockNumber": "0x2c90842",
      "gasUsed": "0x6a90",
      "effectiveGasPrice": "0x3b9aca00",
      "blobGasUsed": "0x9c40",
      "from": "0x4b992f2fbf714c0fcbb23bac5130ace48cad00cd",
      "to": "0x46ca7a592990a8d7396dc7d1d761c47c5370993e",
      "contractAddress": null,
      "daFootprintGasScalar": "0x190",
      "l1BaseFeeScalar": "0x7d0",
      "l1BlobBaseFee": "0x1",
      "l1BlobBaseFeeScalar": "0xdbba0",
      "l1Fee": "0x76",
      "l1GasPrice": "0x9",
      "l1GasUsed": "0x640"
    },
    {
      "status": "0x1",
      "cumulativeGasUsed": "0x7354e",
      "logs": [
        {
          "address": "0x369b5a33e388a631f056e6a398927008ca4c5660",
          "topics": [
            "0x8c5be1e5ebec7d5bd14f71427d1e84f3dd0314c0f7b2291e5b200ac8c7c3b925",
            "0x0000000000000000000000004b992f2fbf714c0fcbb23bac5130ace48cad00cd",
            "0x0000000000000000000000009cd2b0a732dd5e023a5539921e0fd1c30e198dba"
          ],
          "data": "0xffffffffffffffffffffffffffffffffffffffffffffffffffffffffffffffff",
          "blockHash": "0x2035dadae1382fb7033d95a45c42f1396a563733ca8c9fb898577635ce2e61eb",
          "blockNumber": "0x2c90844",
          "blockTimestamp": "0x69b6b590",
          "transactionHash": "0x57b8a503173dff66873aa41f46584986f617e3d81ceea6e23c9b109c0ce7a6e4",
          "transactionIndex": "0x6",
          "logIndex": "0x4",
          "removed": false
        }
      ],
      "logsBloom": "0x00000000000000000000000000000000000000004000000000000000000000000080000000000000000000000000000000000002000000000000000000200002000000000000000000000000000000000000000000000000000100000000000000000000000000000000000000020000000000000000000000000000000000000000000000000000000000000800000000000000000000000000000000000000020000000000000000000000000000000000080000000000000000000000000000000000000000000000000000000000040000000000000000000000000000000010000000000000000000000000000000000000000000000000000000000000",
      "type": "0x0",
      "transactionHash": "0x57b8a503173dff66873aa41f46584986f617e3d81ceea6e23c9b109c0ce7a6e4",
      "transactionIndex": "0x6",
      "blockHash": "0x2035dadae1382fb7033d95a45c42f1396a563733ca8c9fb898577635ce2e61eb",
      "blockNumber": "0x2c90844",
      "gasUsed": "0x6acc",
      "effectiveGasPrice": "0x3b9aca00",
      "blobGasUsed": "0x9c40",
      "from": "0x4b992f2fbf714c0fcbb23bac5130ace48cad00cd",
      "to": "0x369b5a33e388a631f056e6a398927008ca4c5660",
      "contractAddress": null,
      "daFootprintGasScalar": "0x190",
      "l1BaseFeeScalar": "0x7d0",
      "l1BlobBaseFee": "0x1",
      "l1BlobBaseFeeScalar": "0xdbba0",
      "l1Fee": "0x76",
      "l1GasPrice": "0x9",
      "l1GasUsed": "0x640"
    },
    {
      "status": "0x1",
      "cumulativeGasUsed": "0x7f7dd",
      "logs": [
        {
          "address": "0x46ca7a592990a8d7396dc7d1d761c47c5370993e",
          "topics": [
            "0x8c5be1e5ebec7d5bd14f71427d1e84f3dd0314c0f7b2291e5b200ac8c7c3b925",
            "0x0000000000000000000000004b992f2fbf714c0fcbb23bac5130ace48cad00cd",
            "0x0000000000000000000000009cd2b0a732dd5e023a5539921e0fd1c30e198dba"
          ],
          "data": "0xffffffffffffffffffffffffffffffffffffffffffffffffffffffffffffffff",
          "blockHash": "0x8f673e18b3b0ea0fbe3e4bee8ef89987acd8b2ab9a7c077a4bc9ef8598fcc7d7",
          "blockNumber": "0x2c90845",
          "blockTimestamp": "0x69b6b591",
          "transactionHash": "0xd36054aeddec48039cad25f5a96eaae0e944276f148b583d51f5fc789589817c",
          "transactionIndex": "0x6",
          "logIndex": "0x7",
          "removed": false
        }
      ],
      "logsBloom": "0x00000000000000000000000000000000000000004000000000000000000000000080000000000000000000000200000200000002000000000000000000200000000000000000000000000000000000000000000000000000000100000000000000000000000000000000000000020000000000000000000000000000000000000000000000000000000000000000000000000000000000000000000000000000020000000000000000000000000000000000080000000000000000000000000000000080000000000000000000000000000000000000000000000000000000000010000000000000000000000000000000000000000000000000000000000000",
      "type": "0x0",
      "transactionHash": "0xd36054aeddec48039cad25f5a96eaae0e944276f148b583d51f5fc789589817c",
      "transactionIndex": "0x6",
      "blockHash": "0x8f673e18b3b0ea0fbe3e4bee8ef89987acd8b2ab9a7c077a4bc9ef8598fcc7d7",
      "blockNumber": "0x2c90845",
      "gasUsed": "0x6acc",
      "effectiveGasPrice": "0x3b9aca00",
      "blobGasUsed": "0x9c40",
      "from": "0x4b992f2fbf714c0fcbb23bac5130ace48cad00cd",
      "to": "0x46ca7a592990a8d7396dc7d1d761c47c5370993e",
      "contractAddress": null,
      "daFootprintGasScalar": "0x190",
      "l1BaseFeeScalar": "0x7d0",
      "l1BlobBaseFee": "0x1",
      "l1BlobBaseFeeScalar": "0xdbba0",
      "l1Fee": "0x76",
      "l1GasPrice": "0x9",
      "l1GasUsed": "0x640"
    },
    {
      "status": "0x1",
      "cumulativeGasUsed": "0x2e706",
      "logs": [
        {
          "address": "0x000000000022d473030f116ddee9f6b43ac78ba3",
          "topics": [
            "0xda9fa7c1b00402c17d0161b249b1ab8bbec047c5a52207b9c112deffd817036b",
            "0x0000000000000000000000004b992f2fbf714c0fcbb23bac5130ace48cad00cd",
            "0x000000000000000000000000369b5a33e388a631f056e6a398927008ca4c5660",
            "0x000000000000000000000000f969aee60879c54baaed9f3ed26147db216fd664"
          ],
          "data": "0x000000000000000000000000ffffffffffffffffffffffffffffffffffffffff0000000000000000000000000000000000000000000000000000ffffffffffff",
          "blockHash": "0xbd1613427e5c4286c9eb89a97ea96628c0a9d9e1e8ea457ab06976a5c11b06f0",
          "blockNumber": "0x2c90848",
          "blockTimestamp": "0x69b6b594",
          "transactionHash": "0x540c7fe315bca57666f038151645b4b9c428312b665e2acb6d13de42294c0394",
          "transactionIndex": "0x3",
          "logIndex": "0x1",
          "removed": false
        }
      ],
      "logsBloom": "0x00010000000000000000000000000000000000000000000000000000000000000000000000000000000000000000000000000002000000000000000000080000000000000000000000000000000000000000000000000000000100001000000000000000000000000000000000020000000000000040000000000000000000000020000000000000000040000000000000000000010000000000000000000000000000000000000000000000000000000000000000000000000000080000000000000000000000000000000000000000000000000000000040000000000000000000000020000000000000000000000000000000000000000000000000002400",
      "type": "0x0",
      "transactionHash": "0x540c7fe315bca57666f038151645b4b9c428312b665e2acb6d13de42294c0394",
      "transactionIndex": "0x3",
      "blockHash": "0xbd1613427e5c4286c9eb89a97ea96628c0a9d9e1e8ea457ab06976a5c11b06f0",
      "blockNumber": "0x2c90848",
      "gasUsed": "0x6d0e",
      "effectiveGasPrice": "0x3b9aca00",
      "blobGasUsed": "0xa730",
      "from": "0x4b992f2fbf714c0fcbb23bac5130ace48cad00cd",
      "to": "0x000000000022d473030f116ddee9f6b43ac78ba3",
      "contractAddress": null,
      "daFootprintGasScalar": "0x190",
      "l1BaseFeeScalar": "0x7d0",
      "l1BlobBaseFee": "0x1",
      "l1BlobBaseFeeScalar": "0xdbba0",
      "l1Fee": "0x7f",
      "l1GasPrice": "0x9",
      "l1GasUsed": "0x6b2"
    },
    {
      "status": "0x1",
      "cumulativeGasUsed": "0x5c76a",
      "logs": [
        {
          "address": "0x000000000022d473030f116ddee9f6b43ac78ba3",
          "topics": [
            "0xda9fa7c1b00402c17d0161b249b1ab8bbec047c5a52207b9c112deffd817036b",
            "0x0000000000000000000000004b992f2fbf714c0fcbb23bac5130ace48cad00cd",
            "0x00000000000000000000000046ca7a592990a8d7396dc7d1d761c47c5370993e",
            "0x000000000000000000000000f969aee60879c54baaed9f3ed26147db216fd664"
          ],
          "data": "0x000000000000000000000000ffffffffffffffffffffffffffffffffffffffff0000000000000000000000000000000000000000000000000000ffffffffffff",
          "blockHash": "0xa943a75883ea883a15a34997cab0bddf9554e9fe886a9616f4ebdeb040425c65",
          "blockNumber": "0x2c9084a",
          "blockTimestamp": "0x69b6b596",
          "transactionHash": "0xfb6cd479e2f3240370c0d1f12a868db0af5e1fad0dbfedfd6ee72acad008e03b",
          "transactionIndex": "0x5",
          "logIndex": "0x3",
          "removed": false
        }
      ],
      "logsBloom": "0x00010000000000000000000000000000000000000000000000000000000000000000000000000000000000004000000000000002000000000000000000080000000000000000000000000000000000000000000000000000000100001000000000000000000000000000000000020000000000000040000000000000000000000020000000000000000000000000000000000000000000000002000000000000000000000000000000000000000000000000000000000000000000080000000000000000000000000000000000000000080000000000000040000000000000000000000000000000000000000000000000000000000000000000000000002400",
      "type": "0x0",
      "transactionHash": "0xfb6cd479e2f3240370c0d1f12a868db0af5e1fad0dbfedfd6ee72acad008e03b",
      "transactionIndex": "0x5",
      "blockHash": "0xa943a75883ea883a15a34997cab0bddf9554e9fe886a9616f4ebdeb040425c65",
      "blockNumber": "0x2c9084a",
      "gasUsed": "0x6d0e",
      "effectiveGasPrice": "0x3b9aca00",
      "blobGasUsed": "0xa730",
      "from": "0x4b992f2fbf714c0fcbb23bac5130ace48cad00cd",
      "to": "0x000000000022d473030f116ddee9f6b43ac78ba3",
      "contractAddress": null,
      "daFootprintGasScalar": "0x190",
      "l1BaseFeeScalar": "0x7d0",
      "l1BlobBaseFee": "0x1",
      "l1BlobBaseFeeScalar": "0xdbba0",
      "l1Fee": "0x7f",
      "l1GasPrice": "0x9",
      "l1GasUsed": "0x6b2"
    },
    {
      "status": "0x1",
      "cumulativeGasUsed": "0x8ae12",
      "logs": [
        {
          "address": "0x000000000022d473030f116ddee9f6b43ac78ba3",
          "topics": [
            "0xda9fa7c1b00402c17d0161b249b1ab8bbec047c5a52207b9c112deffd817036b",
            "0x0000000000000000000000004b992f2fbf714c0fcbb23bac5130ace48cad00cd",
            "0x000000000000000000000000369b5a33e388a631f056e6a398927008ca4c5660",
            "0x00000000000000000000000000b036b58a818b1bc34d502d3fe730db729e62ac"
          ],
          "data": "0x000000000000000000000000ffffffffffffffffffffffffffffffffffffffff0000000000000000000000000000000000000000000000000000ffffffffffff",
          "blockHash": "0x3234bfb9cbc7d3b8aff3e07827daf3bda65fc93c851685225f567e66c7aad2bf",
          "blockNumber": "0x2c9084d",
          "blockTimestamp": "0x69b6b599",
          "transactionHash": "0x2a64c168b7fcbff277992db4613acdf5dd9458e0ebcf2ae5599c7acb20df8c28",
          "transactionIndex": "0x7",
          "logIndex": "0x6",
          "removed": false
        }
      ],
      "logsBloom": "0x00010000000000000000000000000000000000000000000000000000000000000000000000000000000000000000000000000002001000000000000000080000000000000000000000000000000000000000000000000000000100000000000000000000000000000000000000024000000000000000000000000000000000000020000000000000000040000000000000000000010000000000000000000000000000000000000000000000000000000000000000000020000000080000000000000000000000000000000000000000000000000000000040000000000000000000000020000000000000000000000000000000000000000000000000000400",
      "type": "0x0",
      "transactionHash": "0x2a64c168b7fcbff277992db4613acdf5dd9458e0ebcf2ae5599c7acb20df8c28",
      "transactionIndex": "0x7",
      "blockHash": "0x3234bfb9cbc7d3b8aff3e07827daf3bda65fc93c851685225f567e66c7aad2bf",
      "blockNumber": "0x2c9084d",
      "gasUsed": "0x6d02",
      "effectiveGasPrice": "0x3b9aca00",
      "blobGasUsed": "0xa5a0",
      "from": "0x4b992f2fbf714c0fcbb23bac5130ace48cad00cd",
      "to": "0x000000000022d473030f116ddee9f6b43ac78ba3",
      "contractAddress": null,
      "daFootprintGasScalar": "0x190",
      "l1BaseFeeScalar": "0x7d0",
      "l1BlobBaseFee": "0x1",
      "l1BlobBaseFeeScalar": "0xdbba0",
      "l1Fee": "0x7e",
      "l1GasPrice": "0x9",
      "l1GasUsed": "0x6a4"
    },
    {
      "status": "0x1",
      "cumulativeGasUsed": "0x5c75e",
      "logs": [
        {
          "address": "0x000000000022d473030f116ddee9f6b43ac78ba3",
          "topics": [
            "0xda9fa7c1b00402c17d0161b249b1ab8bbec047c5a52207b9c112deffd817036b",
            "0x0000000000000000000000004b992f2fbf714c0fcbb23bac5130ace48cad00cd",
            "0x00000000000000000000000046ca7a592990a8d7396dc7d1d761c47c5370993e",
            "0x00000000000000000000000000b036b58a818b1bc34d502d3fe730db729e62ac"
          ],
          "data": "0x000000000000000000000000ffffffffffffffffffffffffffffffffffffffff0000000000000000000000000000000000000000000000000000ffffffffffff",
          "blockHash": "0x5cb4caaf6f1e11551ee65b101cccbfc8bb7a4a74fed899558d8de2ebd54b4e8c",
          "blockNumber": "0x2c9084e",
          "blockTimestamp": "0x69b6b59a",
          "transactionHash": "0xfbae1ce14ba532fbc8f7a60d788a6488919dc6a8bbbe5ff49fd130dcd7a3fd8b",
          "transactionIndex": "0x5",
          "logIndex": "0x3",
          "removed": false
        }
      ],
      "logsBloom": "0x00010000000000000000000000000000000000000000000000000000000000000000000000000000000000004000000000000002001000000000000000080000000000000000000000000000000000000000000000000000000100000000000000000000000000000000000000024000000000000000000000000000000000000020000000000000000000000000000000000000000000000002000000000000000000000000000000000000000000000000000000000020000000080000000000000000000000000000000000000000080000000000000040000000000000000000000000000000000000000000000000000000000000000000000000000400",
      "type": "0x0",
      "transactionHash": "0xfbae1ce14ba532fbc8f7a60d788a6488919dc6a8bbbe5ff49fd130dcd7a3fd8b",
      "transactionIndex": "0x5",
      "blockHash": "0x5cb4caaf6f1e11551ee65b101cccbfc8bb7a4a74fed899558d8de2ebd54b4e8c",
      "blockNumber": "0x2c9084e",
      "gasUsed": "0x6d02",
      "effectiveGasPrice": "0x3b9aca00",
      "blobGasUsed": "0xa5a0",
      "from": "0x4b992f2fbf714c0fcbb23bac5130ace48cad00cd",
      "to": "0x000000000022d473030f116ddee9f6b43ac78ba3",
      "contractAddress": null,
      "daFootprintGasScalar": "0x190",
      "l1BaseFeeScalar": "0x7d0",
      "l1BlobBaseFee": "0x1",
      "l1BlobBaseFeeScalar": "0xdbba0",
      "l1Fee": "0x7e",
      "l1GasPrice": "0x9",
      "l1GasUsed": "0x6a4"
    },
    {
      "status": "0x1",
      "cumulativeGasUsed": "0x62586",
      "logs": [
        {
          "address": "0xbc395b61ccd210eaa3c0f69d1a2f6bfa7598c0c0",
          "topics": [
            "0xa5acffcff43d0d06125b645c282a092a16ab5203cdf71be6aebd5b722369b78b",
            "0x36ca935e19ed50bf75254ec2412971b8d8be8a1411e9397bd0db47aae5948708",
            "0x0000000000000000000000009cd2b0a732dd5e023a5539921e0fd1c30e198dba"
          ],
          "data": "0xfffffffffffffffffffffffffffffffffffffffffffffffff21f494c589c0000",
          "blockHash": "0x68b2a4d2808aa54f78245209a447fbbe4f64cc2f3053e45f6a42a37f11df0760",
          "blockNumber": "0x2c90851",
          "blockTimestamp": "0x69b6b59d",
          "transactionHash": "0xd071bf2dfa311035c015c5b7113e73fafb52ff0546361cbc03ce7816289b6928",
          "transactionIndex": "0x3",
          "logIndex": "0x1",
          "removed": false
        },
        {
          "address": "0x00b036b58a818b1bc34d502d3fe730db729e62ac",
          "topics": [
            "0x40e9cecb9f5f1f1c5b9c97dec2917b7ee92e57ba5563708daca94dd84ad7112f",
            "0x36ca935e19ed50bf75254ec2412971b8d8be8a1411e9397bd0db47aae5948708",
            "0x0000000000000000000000009cd2b0a732dd5e023a5539921e0fd1c30e198dba"
          ],
          "data": "0xfffffffffffffffffffffffffffffffffffffffffffffffff21f494c589c00000000000000000000000000000000000000000000000000000db317008968e0b20000000000000000000000000000000000000000fd790e5d4347808dc857a93c0000000000000000000000000000000000000000000000056bc75e2d63100000ffffffffffffffffffffffffffffffffffffffffffffffffffffffffffffff390000000000000000000000000000000000000000000000000000000000000bb8",
          "blockHash": "0x68b2a4d2808aa54f78245209a447fbbe4f64cc2f3053e45f6a42a37f11df0760",
          "blockNumber": "0x2c90851",
          "blockTimestamp": "0x69b6b59d",
          "transactionHash": "0xd071bf2dfa311035c015c5b7113e73fafb52ff0546361cbc03ce7816289b6928",
          "transactionIndex": "0x3",
          "logIndex": "0x2",
          "removed": false
        },
        {
          "address": "0xbc395b61ccd210eaa3c0f69d1a2f6bfa7598c0c0",
          "topics": [
            "0x2b80ab78393a582d3a166b6ab6663a604f3c4a48ef641c764e320bfacda29905",
            "0x36ca935e19ed50bf75254ec2412971b8d8be8a1411e9397bd0db47aae5948708",
            "0x0000000000000000000000009cd2b0a732dd5e023a5539921e0fd1c30e198dba"
          ],
          "data": "0xfffffffffffffffffffffffffffffffffffffffffffffffff21f494c589c00000000000000000000000000000000000000000000000000000db317008968e0b2",
          "blockHash": "0x68b2a4d2808aa54f78245209a447fbbe4f64cc2f3053e45f6a42a37f11df0760",
          "blockNumber": "0x2c90851",
          "blockTimestamp": "0x69b6b59d",
          "transactionHash": "0xd071bf2dfa311035c015c5b7113e73fafb52ff0546361cbc03ce7816289b6928",
          "transactionIndex": "0x3",
          "logIndex": "0x3",
          "removed": false
        },
        {
          "address": "0xe9c26cdbb509e1515d06d8eaca74c63e08143977",
          "topics": [
            "0xd2f36b7fd206a8b1cc41c911e5097cad7b212c0fdb230311dd2568194e7d9a5d",
            "0x000000000000000000000000bc395b61ccd210eaa3c0f69d1a2f6bfa7598c0c0"
          ],
          "data": "0x000000000000000000000000000000000000000000000002b5e3af16b18800000000000000000000000000000000000000000001033333333333333333333333",
          "blockHash": "0x68b2a4d2808aa54f78245209a447fbbe4f64cc2f3053e45f6a42a37f11df0760",
          "blockNumber": "0x2c90851",
          "blockTimestamp": "0x69b6b59d",
          "transactionHash": "0xd071bf2dfa311035c015c5b7113e73fafb52ff0546361cbc03ce7816289b6928",
          "transactionIndex": "0x3",
          "logIndex": "0x4",
          "removed": false
        },
        {
          "address": "0xbc395b61ccd210eaa3c0f69d1a2f6bfa7598c0c0",
          "topics": [
            "0xf059efa99356d5abd66580e650057603cd2b6a494860d651599484de719bc016",
            "0x36ca935e19ed50bf75254ec2412971b8d8be8a1411e9397bd0db47aae5948708",
            "0x000000000000000000000000000000000000000000000002b5e3af16b1880000"
          ],
          "data": "0x",
          "blockHash": "0x68b2a4d2808aa54f78245209a447fbbe4f64cc2f3053e45f6a42a37f11df0760",
          "blockNumber": "0x2c90851",
          "blockTimestamp": "0x69b6b59d",
          "transactionHash": "0xd071bf2dfa311035c015c5b7113e73fafb52ff0546361cbc03ce7816289b6928",
          "transactionIndex": "0x3",
          "logIndex": "0x5",
          "removed": false
        },
        {
          "address": "0x369b5a33e388a631f056e6a398927008ca4c5660",
          "topics": [
            "0xddf252ad1be2c89b69c2b068fc378daa952ba7f163c4a11628f55a4df523b3ef",
            "0x0000000000000000000000004b992f2fbf714c0fcbb23bac5130ace48cad00cd",
            "0x00000000000000000000000000b036b58a818b1bc34d502d3fe730db729e62ac"
          ],
          "data": "0x0000000000000000000000000000000000000000000000000de0b6b3a7640000",
          "blockHash": "0x68b2a4d2808aa54f78245209a447fbbe4f64cc2f3053e45f6a42a37f11df0760",
          "blockNumber": "0x2c90851",
          "blockTimestamp": "0x69b6b59d",
          "transactionHash": "0xd071bf2dfa311035c015c5b7113e73fafb52ff0546361cbc03ce7816289b6928",
          "transactionIndex": "0x3",
          "logIndex": "0x6",
          "removed": false
        },
        {
          "address": "0x46ca7a592990a8d7396dc7d1d761c47c5370993e",
          "topics": [
            "0xddf252ad1be2c89b69c2b068fc378daa952ba7f163c4a11628f55a4df523b3ef",
            "0x00000000000000000000000000b036b58a818b1bc34d502d3fe730db729e62ac",
            "0x0000000000000000000000004b992f2fbf714c0fcbb23bac5130ace48cad00cd"
          ],
          "data": "0x0000000000000000000000000000000000000000000000000db317008968e0b2",
          "blockHash": "0x68b2a4d2808aa54f78245209a447fbbe4f64cc2f3053e45f6a42a37f11df0760",
          "blockNumber": "0x2c90851",
          "blockTimestamp": "0x69b6b59d",
          "transactionHash": "0xd071bf2dfa311035c015c5b7113e73fafb52ff0546361cbc03ce7816289b6928",
          "transactionIndex": "0x3",
          "logIndex": "0x7",
          "removed": false
        }
      ],
      "logsBloom": "0x000000000200800040000000000000000010000040000000000040000000000000800000000000000000000002000002000000020410000000000000000000020000000000100000004000080000000000004020000000202001000000000000000000000000000000000100020240800000000000000000000000100000000000000020000000000000000008080000000000000000000000000000000000000008000000000000000000000000000000000800040001200000000000000000040000c2000004000000000002000008040000000000000000000000004001000000000000000000004000000110000000000000000002000000000000000410",
      "type": "0x0",
      "transactionHash": "0xd071bf2dfa311035c015c5b7113e73fafb52ff0546361cbc03ce7816289b6928",
      "transactionIndex": "0x3",
      "blockHash": "0x68b2a4d2808aa54f78245209a447fbbe4f64cc2f3053e45f6a42a37f11df0760",
      "blockNumber": "0x2c90851",
      "gasUsed": "0x3ab8e",
      "effectiveGasPrice": "0x3b9aca00",
      "blobGasUsed": "0x13880",
      "from": "0x4b992f2fbf714c0fcbb23bac5130ace48cad00cd",
      "to": "0x9cd2b0a732dd5e023a5539921e0fd1c30e198dba",
      "contractAddress": null,
      "daFootprintGasScalar": "0x190",
      "l1BaseFeeScalar": "0x7d0",
      "l1BlobBaseFee": "0x1",
      "l1BlobBaseFeeScalar": "0xdbba0",
      "l1Fee": "0xee",
      "l1GasPrice": "0x9",
      "l1GasUsed": "0xc8d"
    },
    {
      "status": "0x1",
      "cumulativeGasUsed": "0x8ef03",
      "logs": [
        {
          "address": "0xfcf54f8709423379891b9fc20bb2e4e8f6dac6bb",
          "topics": [
            "0xddf252ad1be2c89b69c2b068fc378daa952ba7f163c4a11628f55a4df523b3ef",
            "0x0000000000000000000000003e63905833eb3448e873801cc9a1c6212bd4ff01",
            "0x0000000000000000000000000000000000000000000000000000000000000000"
          ],
          "data": "0x00000000000000000000000000000000000000000000006c6b935b8bbd400000",
          "blockHash": "0x498dd3118f4a62bf6d4f4c700085b8d11f08c308a563d545d11dd38c810a0dda",
          "blockNumber": "0x2c90853",
          "blockTimestamp": "0x69b6b59f",
          "transactionHash": "0xd97f4df7cfcb9883a0607d58f304a6c09978646709059ffbff9e81691024e7bb",
          "transactionIndex": "0x6",
          "logIndex": "0x4",
          "removed": false
        },
        {
          "address": "0x369b5a33e388a631f056e6a398927008ca4c5660",
          "topics": [
            "0xddf252ad1be2c89b69c2b068fc378daa952ba7f163c4a11628f55a4df523b3ef",
            "0x000000000000000000000000e9c26cdbb509e1515d06d8eaca74c63e08143977",
            "0x0000000000000000000000003e63905833eb3448e873801cc9a1c6212bd4ff01"
          ],
          "data": "0x000000000000000000000000000000000000000000000036e342998b8b020000",
          "blockHash": "0x498dd3118f4a62bf6d4f4c700085b8d11f08c308a563d545d11dd38c810a0dda",
          "blockNumber": "0x2c90853",
          "blockTimestamp": "0x69b6b59f",
          "transactionHash": "0xd97f4df7cfcb9883a0607d58f304a6c09978646709059ffbff9e81691024e7bb",
          "transactionIndex": "0x6",
          "logIndex": "0x5",
          "removed": false
        },
        {
          "address": "0x46ca7a592990a8d7396dc7d1d761c47c5370993e",
          "topics": [
            "0xddf252ad1be2c89b69c2b068fc378daa952ba7f163c4a11628f55a4df523b3ef",
            "0x000000000000000000000000e9c26cdbb509e1515d06d8eaca74c63e08143977",
            "0x0000000000000000000000003e63905833eb3448e873801cc9a1c6212bd4ff01"
          ],
          "data": "0x000000000000000000000000000000000000000000000036e342998b8b020000",
          "blockHash": "0x498dd3118f4a62bf6d4f4c700085b8d11f08c308a563d545d11dd38c810a0dda",
          "blockNumber": "0x2c90853",
          "blockTimestamp": "0x69b6b59f",
          "transactionHash": "0xd97f4df7cfcb9883a0607d58f304a6c09978646709059ffbff9e81691024e7bb",
          "transactionIndex": "0x6",
          "logIndex": "0x6",
          "removed": false
        },
        {
          "address": "0xe9c26cdbb509e1515d06d8eaca74c63e08143977",
          "topics": [
            "0x9098b5d2df18e362430218b79a4098cb0081120ca9fa44e94891dcbefe5204de",
            "0x0000000000000000000000003e63905833eb3448e873801cc9a1c6212bd4ff01",
            "0x0000000000000000000000003e63905833eb3448e873801cc9a1c6212bd4ff01"
          ],
          "data": "0x00000000000000000000000000000000000000000000006c6b935b8bbd400000000000000000000000000000000000000000000000000036e342998b8b020000000000000000000000000000000000000000000000000036e342998b8b02000000000000000000000000000000000000000000000000006dc685331716040000",
          "blockHash": "0x498dd3118f4a62bf6d4f4c700085b8d11f08c308a563d545d11dd38c810a0dda",
          "blockNumber": "0x2c90853",
          "blockTimestamp": "0x69b6b59f",
          "transactionHash": "0xd97f4df7cfcb9883a0607d58f304a6c09978646709059ffbff9e81691024e7bb",
          "transactionIndex": "0x6",
          "logIndex": "0x7",
          "removed": false
        }
      ],
      "logsBloom": "0x000000000080000040010000000000000008000000000000000000000000000800000000000000000000000002000002000000000000000000000000000000020000000000000000000000080000400000000000000000000000000000000000000000000200000000000000000008000000000000000000000000100000000000000000100000000000000008000000000000000000000000000000000000000000000000000000000000000000000008000020000001000000000000000000000000c2010000000000000000000000040000000000000000000000000020000000004200000000000000000000020000000000000000000000000000000000",
      "type": "0x0",
      "transactionHash": "0xd97f4df7cfcb9883a0607d58f304a6c09978646709059ffbff9e81691024e7bb",
      "transactionIndex": "0x6",
      "blockHash": "0x498dd3118f4a62bf6d4f4c700085b8d11f08c308a563d545d11dd38c810a0dda",
      "blockNumber": "0x2c90853",
      "gasUsed": "0x22481",
      "effectiveGasPrice": "0x3b9aca00",
      "blobGasUsed": "0x9c40",
      "from": "0x3e63905833eb3448e873801cc9a1c6212bd4ff01",
      "to": "0xe9c26cdbb509e1515d06d8eaca74c63e08143977",
      "contractAddress": null,
      "daFootprintGasScalar": "0x190",
      "l1BaseFeeScalar": "0x7d0",
      "l1BlobBaseFee": "0x1",
      "l1BlobBaseFeeScalar": "0xdbba0",
      "l1Fee": "0x76",
      "l1GasPrice": "0x9",
      "l1GasUsed": "0x640"
    }
  ],
  "libraries": [],
  "pending": [],
  "returns": {},
  "timestamp": 1773581726984,
  "chain": 1301,
  "commit": "efcdf29"
}